{
	"_format": "hh-sol-artifact-1",
	"contractName": "MeetdAppNFT",
	"sourceName": "contracts/NFT/MeetdAppNFT.sol",
	"abi": [
		{
			"inputs": [
				{
					"internalType": "string",
					"name": "_name",
					"type": "string"
				},
				{
					"internalType": "string",
					"name": "_symbol",
					"type": "string"
				},
				{
					"internalType": "string",
					"name": "_URI",
					"type": "string"
				}
			],
			"stateMutability": "nonpayable",
			"type": "constructor"
		},
		{
			"anonymous": false,
			"inputs": [
				{
					"indexed": true,
					"internalType": "address",
					"name": "owner",
					"type": "address"
				},
				{
					"indexed": true,
					"internalType": "address",
					"name": "approved",
					"type": "address"
				},
				{
					"indexed": true,
					"internalType": "uint256",
					"name": "tokenId",
					"type": "uint256"
				}
			],
			"name": "Approval",
			"type": "event"
		},
		{
			"anonymous": false,
			"inputs": [
				{
					"indexed": true,
					"internalType": "address",
					"name": "owner",
					"type": "address"
				},
				{
					"indexed": true,
					"internalType": "address",
					"name": "operator",
					"type": "address"
				},
				{
					"indexed": false,
					"internalType": "bool",
					"name": "approved",
					"type": "bool"
				}
			],
			"name": "ApprovalForAll",
			"type": "event"
		},
		{
			"anonymous": false,
			"inputs": [
				{
					"indexed": true,
					"internalType": "address",
					"name": "previousOwner",
					"type": "address"
				},
				{
					"indexed": true,
					"internalType": "address",
					"name": "newOwner",
					"type": "address"
				}
			],
			"name": "OwnershipTransferred",
			"type": "event"
		},
		{
			"anonymous": false,
			"inputs": [
				{
					"indexed": true,
					"internalType": "address",
					"name": "from",
					"type": "address"
				},
				{
					"indexed": true,
					"internalType": "address",
					"name": "to",
					"type": "address"
				},
				{
					"indexed": true,
					"internalType": "uint256",
					"name": "tokenId",
					"type": "uint256"
				}
			],
			"name": "Transfer",
			"type": "event"
		},
		{
			"inputs": [
				{
					"internalType": "address",
					"name": "",
					"type": "address"
				},
				{
					"internalType": "uint256",
					"name": "",
					"type": "uint256"
				}
			],
			"name": "approve",
			"outputs": [],
			"stateMutability": "pure",
			"type": "function"
		},
		{
			"inputs": [
				{
					"internalType": "address",
					"name": "owner",
					"type": "address"
				}
			],
			"name": "balanceOf",
			"outputs": [
				{
					"internalType": "uint256",
					"name": "",
					"type": "uint256"
				}
			],
			"stateMutability": "view",
			"type": "function"
		},
		{
			"inputs": [],
			"name": "baseURI",
			"outputs": [
				{
					"internalType": "string",
					"name": "",
					"type": "string"
				}
			],
			"stateMutability": "view",
			"type": "function"
		},
		{
			"inputs": [
				{
					"internalType": "string",
					"name": "_URI",
					"type": "string"
				}
			],
			"name": "changeBaseURI",
			"outputs": [],
			"stateMutability": "nonpayable",
			"type": "function"
		},
		{
			"inputs": [
				{
					"internalType": "uint256",
					"name": "tokenId",
					"type": "uint256"
				}
			],
			"name": "getApproved",
			"outputs": [
				{
					"internalType": "address",
					"name": "",
					"type": "address"
				}
			],
			"stateMutability": "view",
			"type": "function"
		},
		{
			"inputs": [
				{
					"internalType": "address",
					"name": "owner",
					"type": "address"
				},
				{
					"internalType": "address",
					"name": "operator",
					"type": "address"
				}
			],
			"name": "isApprovedForAll",
			"outputs": [
				{
					"internalType": "bool",
					"name": "",
					"type": "bool"
				}
			],
			"stateMutability": "view",
			"type": "function"
		},
		{
			"inputs": [],
			"name": "name",
			"outputs": [
				{
					"internalType": "string",
					"name": "",
					"type": "string"
				}
			],
			"stateMutability": "view",
			"type": "function"
		},
		{
			"inputs": [],
			"name": "owner",
			"outputs": [
				{
					"internalType": "address",
					"name": "",
					"type": "address"
				}
			],
			"stateMutability": "view",
			"type": "function"
		},
		{
			"inputs": [
				{
					"internalType": "uint256",
					"name": "tokenId",
					"type": "uint256"
				}
			],
			"name": "ownerOf",
			"outputs": [
				{
					"internalType": "address",
					"name": "",
					"type": "address"
				}
			],
			"stateMutability": "view",
			"type": "function"
		},
		{
			"inputs": [],
			"name": "renounceOwnership",
			"outputs": [],
			"stateMutability": "nonpayable",
			"type": "function"
		},
		{
			"inputs": [
				{
					"internalType": "address",
					"name": "to",
					"type": "address"
				}
			],
			"name": "safeMint",
			"outputs": [],
			"stateMutability": "nonpayable",
			"type": "function"
		},
		{
			"inputs": [
				{
					"internalType": "address",
					"name": "from",
					"type": "address"
				},
				{
					"internalType": "address",
					"name": "to",
					"type": "address"
				},
				{
					"internalType": "uint256",
					"name": "tokenId",
					"type": "uint256"
				}
			],
			"name": "safeTransferFrom",
			"outputs": [],
			"stateMutability": "nonpayable",
			"type": "function"
		},
		{
			"inputs": [
				{
					"internalType": "address",
					"name": "",
					"type": "address"
				},
				{
					"internalType": "address",
					"name": "",
					"type": "address"
				},
				{
					"internalType": "uint256",
					"name": "",
					"type": "uint256"
				},
				{
					"internalType": "bytes",
					"name": "",
					"type": "bytes"
				}
			],
			"name": "safeTransferFrom",
			"outputs": [],
			"stateMutability": "pure",
			"type": "function"
		},
		{
			"inputs": [
				{
					"internalType": "address",
					"name": "",
					"type": "address"
				},
				{
					"internalType": "bool",
					"name": "",
					"type": "bool"
				}
			],
			"name": "setApprovalForAll",
			"outputs": [],
			"stateMutability": "pure",
			"type": "function"
		},
		{
			"inputs": [
				{
					"internalType": "bytes4",
					"name": "interfaceId",
					"type": "bytes4"
				}
			],
			"name": "supportsInterface",
			"outputs": [
				{
					"internalType": "bool",
					"name": "",
					"type": "bool"
				}
			],
			"stateMutability": "view",
			"type": "function"
		},
		{
			"inputs": [],
			"name": "symbol",
			"outputs": [
				{
					"internalType": "string",
					"name": "",
					"type": "string"
				}
			],
			"stateMutability": "view",
			"type": "function"
		},
		{
			"inputs": [
				{
					"internalType": "uint256",
					"name": "tokenId",
					"type": "uint256"
				}
			],
			"name": "tokenURI",
			"outputs": [
				{
					"internalType": "string",
					"name": "",
					"type": "string"
				}
			],
			"stateMutability": "view",
			"type": "function"
		},
		{
			"inputs": [
				{
					"internalType": "address",
					"name": "",
					"type": "address"
				},
				{
					"internalType": "address",
					"name": "",
					"type": "address"
				},
				{
					"internalType": "uint256",
					"name": "",
					"type": "uint256"
				}
			],
			"name": "transferFrom",
			"outputs": [],
			"stateMutability": "pure",
			"type": "function"
		},
		{
			"inputs": [
				{
					"internalType": "address",
					"name": "newOwner",
					"type": "address"
				}
			],
			"name": "transferOwnership",
			"outputs": [],
			"stateMutability": "nonpayable",
			"type": "function"
		}
	],
	"bytecode": "0x60806040523480156200001157600080fd5b50604051620017c4380380620017c483398101604081905262000034916200020e565b82826000620000448382620003b7565b506001620000538282620003b7565b505050620000706200006a6200008860201b60201c565b6200008c565b60086200007e8282620003b7565b5050505062000487565b3390565b600680546001600160a01b038381166001600160a01b0319831681179093556040519116919082907f8be0079c531659141344cd1fd0a4f28419497f9722a3daafe3b4186f6b6457e090600090a35050565b634e487b7160e01b600052604160045260246000fd5b601f19601f83011681018181106001600160401b03821117156200011c576200011c620000de565b6040525050565b60006200012f60405190565b90506200013d8282620000f4565b919050565b60006001600160401b038211156200015e576200015e620000de565b601f19601f83011660200192915050565b60005b838110156200018c57818101518382015260200162000172565b50506000910152565b6000620001ac620001a68462000142565b62000123565b905082815260208101848484011115620001c957620001c9600080fd5b620001d68482856200016f565b509392505050565b600082601f830112620001f457620001f4600080fd5b81516200020684826020860162000195565b949350505050565b600080600060608486031215620002285762000228600080fd5b83516001600160401b03811115620002435762000243600080fd5b6200025186828701620001de565b93505060208401516001600160401b03811115620002725762000272600080fd5b6200028086828701620001de565b92505060408401516001600160401b03811115620002a157620002a1600080fd5b620002af86828701620001de565b9150509250925092565b634e487b7160e01b600052602260045260246000fd5b600281046001821680620002e457607f821691505b602082108103620002f957620002f9620002b9565b50919050565b6000620003106200030d8381565b90565b92915050565b6200032183620002ff565b815460001960089490940293841b1916921b91909117905550565b60006200034b81848462000316565b505050565b818110156200036f57620003666000826200033c565b60010162000350565b5050565b601f8211156200034b576000818152602090206020601f850104810160208510156200039c5750805b620003b06020601f86010483018262000350565b5050505050565b81516001600160401b03811115620003d357620003d3620000de565b620003df8254620002cf565b620003ec82828562000373565b6020601f8311600181146200042357600084156200040a5750858201515b600019600886021c19811660028602178655506200047f565b600085815260208120601f198616915b8281101562000455578885015182556020948501946001909201910162000433565b86831015620004725784890151600019601f89166008021c191682555b6001600288020188555050505b505050505050565b61132d80620004976000396000f3fe608060405234801561001057600080fd5b50600436106101215760003560e01c80636c0360eb116100ad578063a22cb46511610071578063a22cb46514610241578063b88d4fde14610254578063c87b56dd14610267578063e985e9c51461027a578063f2fde38b146102b657600080fd5b80636c0360eb146101f857806370a0823114610200578063715018a6146102205780638da5cb5b1461022857806395d89b411461023957600080fd5b806323b872dd116100f457806323b872dd1461019957806339a0c6f9146101ac57806340d097c3146101bf57806342842e0e146101d25780636352211e146101e557600080fd5b806301ffc9a71461012657806306fdde031461014f578063081812fc14610164578063095ea7b314610184575b600080fd5b6101396101343660046109bf565b6102c9565b60405161014691906109ea565b60405180910390f35b61015761031b565b6040516101469190610a4e565b610177610172366004610a77565b6103ad565b6040516101469190610ab2565b610197610192366004610ad4565b6103d4565b005b6101976101a7366004610b11565b6103f5565b6101976101ba366004610c5c565b61040d565b6101976101cd366004610c97565b610425565b6101976101e0366004610b11565b610452565b6101776101f3366004610a77565b610472565b6101576104a7565b61021361020e366004610c97565b610535565b6040516101469190610cbe565b610197610579565b6006546001600160a01b0316610177565b61015761058d565b61019761024f366004610cdf565b61059c565b610197610262366004610d12565b6105b4565b610157610275366004610a77565b6105cc565b610139610288366004610d91565b6001600160a01b03918216600090815260056020908152604080832093909416825291909152205460ff1690565b6101976102c4366004610c97565b610669565b60006001600160e01b031982166380ac58cd60e01b14806102fa57506001600160e01b03198216635b5e139f60e01b145b8061031557506301ffc9a760e01b6001600160e01b03198316145b92915050565b60606000805461032a90610dda565b80601f016020809104026020016040519081016040528092919081815260200182805461035690610dda565b80156103a35780601f10610378576101008083540402835291602001916103a3565b820191906000526020600020905b81548152906001019060200180831161038657829003601f168201915b5050505050905090565b60006103b8826106a3565b506000908152600460205260409020546001600160a01b031690565b60405162461bcd60e51b81526004016103ec90610e35565b60405180910390fd5b60405162461bcd60e51b81526004016103ec90610e79565b6104156106d7565b60086104218282610f24565b5050565b61042d6106d7565b600061043860075490565b9050610448600780546001019055565b6104218282610701565b61046d838383604051806020016040528060008152506105b4565b505050565b6000818152600260205260408120546001600160a01b0316806103155760405162461bcd60e51b81526004016103ec9061101c565b600880546104b490610dda565b80601f01602080910402602001604051908101604052809291908181526020018280546104e090610dda565b801561052d5780601f106105025761010080835404028352916020019161052d565b820191906000526020600020905b81548152906001019060200180831161051057829003601f168201915b505050505081565b60006001600160a01b03821661055d5760405162461bcd60e51b81526004016103ec90611075565b506001600160a01b031660009081526003602052604090205490565b6105816106d7565b61058b600061071b565b565b60606001805461032a90610dda565b60405162461bcd60e51b81526004016103ec906110b9565b60405162461bcd60e51b81526004016103ec906110fd565b60606105d7826106a3565b600880546105e490610dda565b80601f016020809104026020016040519081016040528092919081815260200182805461061090610dda565b801561065d5780601f106106325761010080835404028352916020019161065d565b820191906000526020600020905b81548152906001019060200180831161064057829003601f168201915b50505050509050919050565b6106716106d7565b6001600160a01b0381166106975760405162461bcd60e51b81526004016103ec90611150565b6106a08161071b565b50565b6000818152600260205260409020546001600160a01b03166106a05760405162461bcd60e51b81526004016103ec9061101c565b6006546001600160a01b0316331461058b5760405162461bcd60e51b81526004016103ec90611192565b61042182826040518060200160405280600081525061076d565b600680546001600160a01b038381166001600160a01b0319831681179093556040519116919082907f8be0079c531659141344cd1fd0a4f28419497f9722a3daafe3b4186f6b6457e090600090a35050565b61077783836107a0565b610784600084848461089b565b61046d5760405162461bcd60e51b81526004016103ec906111f1565b6001600160a01b0382166107c65760405162461bcd60e51b81526004016103ec90611233565b6000818152600260205260409020546001600160a01b0316156107fb5760405162461bcd60e51b81526004016103ec90611277565b6000818152600260205260409020546001600160a01b0316156108305760405162461bcd60e51b81526004016103ec90611277565b6001600160a01b038216600081815260036020908152604080832080546001019055848352600290915280822080546001600160a01b0319168417905551839291907fddf252ad1be2c89b69c2b068fc378daa952ba7f163c4a11628f55a4df523b3ef908290a45050565b60006001600160a01b0384163b1561099157604051630a85bd0160e11b81526001600160a01b0385169063150b7a02906108df903390899088908890600401611287565b6020604051808303816000875af192505050801561091a575060408051601f3d908101601f19168201909252610917918101906112d6565b60015b610977573d808015610948576040519150601f19603f3d011682016040523d82523d6000602084013e61094d565b606091505b50805160000361096f5760405162461bcd60e51b81526004016103ec906111f1565b805181602001fd5b6001600160e01b031916630a85bd0160e11b149050610995565b5060015b949350505050565b6001600160e01b031981165b81146106a057600080fd5b80356103158161099d565b6000602082840312156109d4576109d4600080fd5b600061099584846109b4565b8015155b82525050565b6020810161031582846109e0565b60005b83811015610a135781810151838201526020016109fb565b50506000910152565b6000610a26825190565b808452602084019350610a3d8185602086016109f8565b601f01601f19169290920192915050565b60208082528101610a5f8184610a1c565b9392505050565b806109a9565b803561031581610a66565b600060208284031215610a8c57610a8c600080fd5b60006109958484610a6c565b60006001600160a01b038216610315565b6109e481610a98565b602081016103158284610aa9565b6109a981610a98565b803561031581610ac0565b60008060408385031215610aea57610aea600080fd5b6000610af68585610ac9565b9250506020610b0785828601610a6c565b9150509250929050565b600080600060608486031215610b2957610b29600080fd5b6000610b358686610ac9565b9350506020610b4686828701610ac9565b9250506040610b5786828701610a6c565b9150509250925092565b634e487b7160e01b600052604160045260246000fd5b601f19601f830116810181811067ffffffffffffffff82111715610b9d57610b9d610b61565b6040525050565b6000610baf60405190565b9050610bbb8282610b77565b919050565b600067ffffffffffffffff821115610bda57610bda610b61565b601f19601f83011660200192915050565b82818337506000910152565b6000610c0a610c0584610bc0565b610ba4565b905082815260208101848484011115610c2557610c25600080fd5b610c30848285610beb565b509392505050565b600082601f830112610c4c57610c4c600080fd5b8135610995848260208601610bf7565b600060208284031215610c7157610c71600080fd5b813567ffffffffffffffff811115610c8b57610c8b600080fd5b61099584828501610c38565b600060208284031215610cac57610cac600080fd5b60006109958484610ac9565b806109e4565b602081016103158284610cb8565b8015156109a9565b803561031581610ccc565b60008060408385031215610cf557610cf5600080fd5b6000610d018585610ac9565b9250506020610b0785828601610cd4565b60008060008060808587031215610d2b57610d2b600080fd5b6000610d378787610ac9565b9450506020610d4887828801610ac9565b9350506040610d5987828801610a6c565b925050606085013567ffffffffffffffff811115610d7957610d79600080fd5b610d8587828801610c38565b91505092959194509250565b60008060408385031215610da757610da7600080fd5b6000610db38585610ac9565b9250506020610b0785828601610ac9565b634e487b7160e01b600052602260045260246000fd5b600281046001821680610dee57607f821691505b602082108103610e0057610e00610dc4565b50919050565b6015815260006020820174105c1c1c9bdd99481a5cdb89dd08185b1b1bddd959605a1b815291505b5060200190565b6020808252810161031581610e06565b601a81526000602082017f7472616e7366657246726f6d2069736e277420616c6c6f77656400000000000081529150610e2e565b6020808252810161031581610e45565b6000610315610e958381565b90565b610ea183610e89565b815460001960089490940293841b1916921b91909117905550565b600061046d818484610e98565b8181101561042157610edc600082610ebc565b600101610ec9565b601f82111561046d576000818152602090206020601f85010481016020851015610f0b5750805b610f1d6020601f860104830182610ec9565b5050505050565b815167ffffffffffffffff811115610f3e57610f3e610b61565b610f488254610dda565b610f53828285610ee4565b6020601f831160018114610f875760008415610f6f5750858201515b600019600886021c1981166002860217865550610fe0565b600085815260208120601f198616915b82811015610fb75788850151825560209485019460019092019101610f97565b86831015610fd35784890151600019601f89166008021c191682555b6001600288020188555050505b505050505050565b601881526000602082017f4552433732313a20696e76616c696420746f6b656e204944000000000000000081529150610e2e565b6020808252810161031581610fe8565b602981526000602082017f4552433732313a2061646472657373207a65726f206973206e6f7420612076618152683634b21037bbb732b960b91b602082015291505b5060400190565b602080825281016103158161102c565b601f81526000602082017f736574417070726f76616c466f72416c6c2069736e277420616c6c6f7765640081529150610e2e565b6020808252810161031581611085565b601e81526000602082017f736166655472616e7366657246726f6d2069736e277420616c6c6f776564000081529150610e2e565b60208082528101610315816110c9565b602681526000602082017f4f776e61626c653a206e6577206f776e657220697320746865207a65726f206181526564647265737360d01b6020820152915061106e565b602080825281016103158161110d565b60208082527f4f776e61626c653a2063616c6c6572206973206e6f7420746865206f776e657291019081526000610e2e565b6020808252810161031581611160565b603281526000602082017f4552433732313a207472616e7366657220746f206e6f6e20455243373231526581527131b2b4bb32b91034b6b83632b6b2b73a32b960711b6020820152915061106e565b60208082528101610315816111a2565b60208082527f4552433732313a206d696e7420746f20746865207a65726f206164647265737391019081526000610e2e565b6020808252810161031581611201565b601c81526000602082017f4552433732313a20746f6b656e20616c7265616479206d696e7465640000000081529150610e2e565b6020808252810161031581611243565b608081016112958287610aa9565b6112a26020830186610aa9565b6112af6040830185610cb8565b81810360608301526112c18184610a1c565b9695505050505050565b80516103158161099d565b6000602082840312156112eb576112eb600080fd5b600061099584846112cb56fea26469706673582212200ddc5e6c148d091a133a3a3968d0c48e090f5a57a9ed47dbbea0d5e683b9a7bb64736f6c63430008130033",
	"linkReferences": {},
	"deployedLinkReferences": {}
}