{
	"address": "0xB243C8019c93f294c9f93330BF6eCC4F2218c49C",
	"abi": [
		{
			"anonymous": false,
			"inputs": [
				{
					"indexed": false,
					"internalType": "string",
					"name": "eventId",
					"type": "string"
				}
			],
			"name": "createdEvent",
			"type": "event"
		},
		{
			"inputs": [
				{
					"internalType": "string[]",
					"name": "_varStr",
					"type": "string[]"
				},
				{
					"internalType": "uint256[]",
					"name": "_varInt",
					"type": "uint256[]"
				}
			],
			"name": "CreateEvent",
			"outputs": [],
			"stateMutability": "nonpayable",
			"type": "function"
		},
		{
			"inputs": [
				{
					"internalType": "uint256",
					"name": "",
					"type": "uint256"
				}
			],
			"name": "mapEventNum",
			"outputs": [
				{
					"internalType": "bool",
					"name": "active",
					"type": "bool"
				},
				{
					"internalType": "string",
					"name": "eventId",
					"type": "string"
				},
				{
					"internalType": "contract MeetdAppEvent",
					"name": "eventAddr",
					"type": "address"
				}
			],
			"stateMutability": "view",
			"type": "function"
		},
		{
			"inputs": [
				{
					"internalType": "bytes32",
					"name": "",
					"type": "bytes32"
				}
			],
			"name": "mapIdEvent",
			"outputs": [
				{
					"internalType": "contract MeetdAppEvent",
					"name": "",
					"type": "address"
				}
			],
			"stateMutability": "view",
			"type": "function"
		},
		{
			"inputs": [],
			"name": "numEvents",
			"outputs": [
				{
					"internalType": "uint256",
					"name": "",
					"type": "uint256"
				}
			],
			"stateMutability": "view",
			"type": "function"
		}
	],
	"transactionHash": "0xf0220a4cdb3bf1b1ac55c96b02c21451d0ba81aed3044d22462c7a3dba57608d",
	"args": [],
	"numDeployments": 1,
	"solcInputHash": "d8f3fc6fde02397356c6cbe018ff4757",
	"bytecode": "0x608060405234801561001057600080fd5b50614a3f806100206000396000f3fe60806040523480156200001157600080fd5b5060043610620000525760003560e01c806334cf562b14620000575780635bad5c21146200007957806364493ac314620000b4578063e702c15314620000dc575b600080fd5b6200006160005481565b604051620000709190620006aa565b60405180910390f35b620000a56200008a366004620006c8565b6001602052600090815260409020546001600160a01b031681565b6040516200007091906200073f565b620000cb620000c5366004620006c8565b620000f5565b6040516200007093929190620007b3565b620000f3620000ed36600462000a4c565b620001b5565b005b6002602052600090815260409020805460018201805460ff90921692916200011d9062000ade565b80601f01602080910402602001604051908101604052809291908181526020018280546200014b9062000ade565b80156200019c5780601f1062000170576101008083540402835291602001916200019c565b820191906000526020600020905b8154815290600101906020018083116200017e57829003601f168201915b505050600290930154919250506001600160a01b031683565b4281600081518110620001cc57620001cc62000b24565b60200260200101511015620001fe5760405162461bcd60e51b8152600401620001f59062000b66565b60405180910390fd5b8060008151811062000214576200021462000b24565b6020026020010151816001600281111562000233576200023362000b0e565b8151811062000246576200024662000b24565b6020026020010151116200026e5760405162461bcd60e51b8152600401620001f59062000ba0565b60008160028151811062000286576200028662000b24565b602002602001015111620002ae5760405162461bcd60e51b8152600401620001f59062000bda565b600082600481518110620002c657620002c662000b24565b60200260200101518360056006811115620002e557620002e562000b0e565b81518110620002f857620002f862000b24565b60200260200101518460068081111562000316576200031662000b0e565b8151811062000329576200032962000b24565b60200260200101516040516200033f9062000686565b6200034d9392919062000bec565b604051809103906000f0801580156200036a573d6000803e3d6000fd5b5060408051600280825260608201835292935060009290916020830190803683370190505090503381600081518110620003a857620003a862000b24565b6001600160a01b03909216602092830291909101909101528181600181518110620003d757620003d762000b24565b60200260200101906001600160a01b031690816001600160a01b03168152505060008185856040516200040a9062000694565b620004189392919062000d87565b604051809103906000f08015801562000435573d6000803e3d6000fd5b5060405163f2fde38b60e01b81529091506001600160a01b0384169063f2fde38b906200046790849060040162000dc6565b600060405180830381600087803b1580156200048257600080fd5b505af115801562000497573d6000803e3d6000fd5b505060405163f2fde38b60e01b81526001600160a01b038416925063f2fde38b9150620004c990339060040162000dc6565b600060405180830381600087803b158015620004e457600080fd5b505af1158015620004f9573d6000803e3d6000fd5b50506000805492509050806200050f8362000dec565b909155505060408051606081019091526001815260208101866000815181106200053d576200053d62000b24565b60209081029190910181015182526001600160a01b0384169181019190915260008054815260028252604090208251815460ff19169015151781559082015160018201906200058d908262000eb8565b5060409190910151600290910180546001600160a01b0319166001600160a01b039092169190911790556000858181518110620005ce57620005ce62000b24565b6020026020010151604051602001620005e8919062000fae565b60408051808303601f1901815291815281516020928301206000818152600190935290822080546001600160a01b0319166001600160a01b03861617905591507f792061a44a6be3c666f6763945c46e98e3fcfa677607d5e36b08fb56be451fdd908790815181106200065f576200065f62000b24565b602002602001015160405162000676919062000fbc565b60405180910390a1505050505050565b6117c48062000fd083390190565b612276806200279483390190565b805b82525050565b60208101620006ba8284620006a2565b92915050565b8035620006ba565b600060208284031215620006df57620006df600080fd5b6000620006ed8484620006c0565b949350505050565b6000620006ba6001600160a01b0383166200070e565b90565b6001600160a01b031690565b6000620006ba82620006f5565b6000620006ba826200071a565b620006a48162000727565b60208101620006ba828462000734565b801515620006a4565b60005b83811015620007755781810151838201526020016200075b565b50506000910152565b600062000789825190565b808452602084019350620007a281856020860162000758565b601f01601f19169290920192915050565b60608101620007c382866200074f565b8181036020830152620007d781856200077e565b9050620006ed604083018462000734565b634e487b7160e01b600052604160045260246000fd5b601f19601f830116810181811067ffffffffffffffff82111715620008275762000827620007e8565b6040525050565b60006200083a60405190565b9050620008488282620007fe565b919050565b600067ffffffffffffffff8211156200086a576200086a620007e8565b5060209081020190565b600067ffffffffffffffff821115620008915762000891620007e8565b601f19601f83011660200192915050565b82818337506000910152565b6000620008c5620008bf8462000874565b6200082e565b905082815260208101848484011115620008e257620008e2600080fd5b620008ef848285620008a2565b509392505050565b600082601f8301126200090d576200090d600080fd5b8135620006ed848260208601620008ae565b600062000930620008bf846200084d565b83815290506020808201908402830185811115620009515762000951600080fd5b835b818110156200099857803567ffffffffffffffff811115620009785762000978600080fd5b808601620009878982620008f7565b855250506020928301920162000953565b5050509392505050565b600082601f830112620009b857620009b8600080fd5b8135620006ed8482602086016200091f565b6000620009db620008bf846200084d565b83815290506020808201908402830185811115620009fc57620009fc600080fd5b835b8181101562000998578062000a148882620006c0565b84525060209283019201620009fe565b600082601f83011262000a3a5762000a3a600080fd5b8135620006ed848260208601620009ca565b6000806040838503121562000a645762000a64600080fd5b823567ffffffffffffffff81111562000a805762000a80600080fd5b62000a8e85828601620009a2565b925050602083013567ffffffffffffffff81111562000ab05762000ab0600080fd5b62000abe8582860162000a24565b9150509250929050565b634e487b7160e01b600052602260045260246000fd5b60028104600182168062000af357607f821691505b60208210810362000b085762000b0862000ac8565b50919050565b634e487b7160e01b600052602160045260246000fd5b634e487b7160e01b600052603260045260246000fd5b6012815260006020820171496e76616c6964207374617274204461746560701b815291505b5060200190565b60208082528101620006ba8162000b3a565b601081526000602082016f496e76616c696420656e64204461746560801b8152915062000b5f565b60208082528101620006ba8162000b78565b601081526000602082016f496e76616c696420636170616369747960801b8152915062000b5f565b60208082528101620006ba8162000bb2565b6060808252810162000bff81866200077e565b9050818103602083015262000c1581856200077e565b9050818103604083015262000c2b81846200077e565b95945050505050565b60006001600160a01b038216620006ba565b620006a48162000c34565b600062000c5f838362000c46565b505060200190565b600062000c72825190565b80845260209384019383018060005b8381101562000caa57815162000c98888262000c51565b97506020830192505060010162000c81565b509495945050505050565b600062000cc383836200077e565b9392505050565b600062000cd5825190565b8084526020840193508360208202850162000cf08560200190565b8060005b8581101562000d29578484038952815162000d10858262000cb5565b94506020830160209a909a019992505060010162000cf4565b5091979650505050505050565b600062000c5f8383620006a2565b600062000d4f825190565b80845260209384019383018060005b8381101562000caa57815162000d75888262000d36565b97506020830192505060010162000d5e565b6060808252810162000d9a818662000c67565b9050818103602083015262000db0818562000cca565b9050818103604083015262000c2b818462000d44565b60208101620006ba828462000c46565b634e487b7160e01b600052601160045260246000fd5b6000600019820362000e025762000e0262000dd6565b5060010190565b6000620006ba6200070b8381565b62000e228362000e09565b815460001960089490940293841b1916921b91909117905550565b600062000e4c81848462000e17565b505050565b8181101562000e705762000e6760008262000e3d565b60010162000e51565b5050565b601f82111562000e4c576000818152602090206020601f8501048101602085101562000e9d5750805b62000eb16020601f86010483018262000e51565b5050505050565b815167ffffffffffffffff81111562000ed55762000ed5620007e8565b62000ee1825462000ade565b62000eee82828562000e74565b6020601f83116001811462000f25576000841562000f0c5750858201515b600019600886021c198116600286021786555062000f81565b600085815260208120601f198616915b8281101562000f57578885015182556020948501946001909201910162000f35565b8683101562000f745784890151600019601f89166008021c191682555b6001600288020188555050505b505050505050565b600062000f94825190565b62000fa481856020860162000758565b9290920192915050565b600062000cc3828462000f89565b6020808252810162000cc381846200077e56fe60806040523480156200001157600080fd5b50604051620017c4380380620017c483398101604081905262000034916200020e565b82826000620000448382620003b7565b506001620000538282620003b7565b505050620000706200006a6200008860201b60201c565b6200008c565b60086200007e8282620003b7565b5050505062000487565b3390565b600680546001600160a01b038381166001600160a01b0319831681179093556040519116919082907f8be0079c531659141344cd1fd0a4f28419497f9722a3daafe3b4186f6b6457e090600090a35050565b634e487b7160e01b600052604160045260246000fd5b601f19601f83011681018181106001600160401b03821117156200011c576200011c620000de565b6040525050565b60006200012f60405190565b90506200013d8282620000f4565b919050565b60006001600160401b038211156200015e576200015e620000de565b601f19601f83011660200192915050565b60005b838110156200018c57818101518382015260200162000172565b50506000910152565b6000620001ac620001a68462000142565b62000123565b905082815260208101848484011115620001c957620001c9600080fd5b620001d68482856200016f565b509392505050565b600082601f830112620001f457620001f4600080fd5b81516200020684826020860162000195565b949350505050565b600080600060608486031215620002285762000228600080fd5b83516001600160401b03811115620002435762000243600080fd5b6200025186828701620001de565b93505060208401516001600160401b03811115620002725762000272600080fd5b6200028086828701620001de565b92505060408401516001600160401b03811115620002a157620002a1600080fd5b620002af86828701620001de565b9150509250925092565b634e487b7160e01b600052602260045260246000fd5b600281046001821680620002e457607f821691505b602082108103620002f957620002f9620002b9565b50919050565b6000620003106200030d8381565b90565b92915050565b6200032183620002ff565b815460001960089490940293841b1916921b91909117905550565b60006200034b81848462000316565b505050565b818110156200036f57620003666000826200033c565b60010162000350565b5050565b601f8211156200034b576000818152602090206020601f850104810160208510156200039c5750805b620003b06020601f86010483018262000350565b5050505050565b81516001600160401b03811115620003d357620003d3620000de565b620003df8254620002cf565b620003ec82828562000373565b6020601f8311600181146200042357600084156200040a5750858201515b600019600886021c19811660028602178655506200047f565b600085815260208120601f198616915b8281101562000455578885015182556020948501946001909201910162000433565b86831015620004725784890151600019601f89166008021c191682555b6001600288020188555050505b505050505050565b61132d80620004976000396000f3fe608060405234801561001057600080fd5b50600436106101215760003560e01c80636c0360eb116100ad578063a22cb46511610071578063a22cb46514610241578063b88d4fde14610254578063c87b56dd14610267578063e985e9c51461027a578063f2fde38b146102b657600080fd5b80636c0360eb146101f857806370a0823114610200578063715018a6146102205780638da5cb5b1461022857806395d89b411461023957600080fd5b806323b872dd116100f457806323b872dd1461019957806339a0c6f9146101ac57806340d097c3146101bf57806342842e0e146101d25780636352211e146101e557600080fd5b806301ffc9a71461012657806306fdde031461014f578063081812fc14610164578063095ea7b314610184575b600080fd5b6101396101343660046109bf565b6102c9565b60405161014691906109ea565b60405180910390f35b61015761031b565b6040516101469190610a4e565b610177610172366004610a77565b6103ad565b6040516101469190610ab2565b610197610192366004610ad4565b6103d4565b005b6101976101a7366004610b11565b6103f5565b6101976101ba366004610c5c565b61040d565b6101976101cd366004610c97565b610425565b6101976101e0366004610b11565b610452565b6101776101f3366004610a77565b610472565b6101576104a7565b61021361020e366004610c97565b610535565b6040516101469190610cbe565b610197610579565b6006546001600160a01b0316610177565b61015761058d565b61019761024f366004610cdf565b61059c565b610197610262366004610d12565b6105b4565b610157610275366004610a77565b6105cc565b610139610288366004610d91565b6001600160a01b03918216600090815260056020908152604080832093909416825291909152205460ff1690565b6101976102c4366004610c97565b610669565b60006001600160e01b031982166380ac58cd60e01b14806102fa57506001600160e01b03198216635b5e139f60e01b145b8061031557506301ffc9a760e01b6001600160e01b03198316145b92915050565b60606000805461032a90610dda565b80601f016020809104026020016040519081016040528092919081815260200182805461035690610dda565b80156103a35780601f10610378576101008083540402835291602001916103a3565b820191906000526020600020905b81548152906001019060200180831161038657829003601f168201915b5050505050905090565b60006103b8826106a3565b506000908152600460205260409020546001600160a01b031690565b60405162461bcd60e51b81526004016103ec90610e35565b60405180910390fd5b60405162461bcd60e51b81526004016103ec90610e79565b6104156106d7565b60086104218282610f24565b5050565b61042d6106d7565b600061043860075490565b9050610448600780546001019055565b6104218282610701565b61046d838383604051806020016040528060008152506105b4565b505050565b6000818152600260205260408120546001600160a01b0316806103155760405162461bcd60e51b81526004016103ec9061101c565b600880546104b490610dda565b80601f01602080910402602001604051908101604052809291908181526020018280546104e090610dda565b801561052d5780601f106105025761010080835404028352916020019161052d565b820191906000526020600020905b81548152906001019060200180831161051057829003601f168201915b505050505081565b60006001600160a01b03821661055d5760405162461bcd60e51b81526004016103ec90611075565b506001600160a01b031660009081526003602052604090205490565b6105816106d7565b61058b600061071b565b565b60606001805461032a90610dda565b60405162461bcd60e51b81526004016103ec906110b9565b60405162461bcd60e51b81526004016103ec906110fd565b60606105d7826106a3565b600880546105e490610dda565b80601f016020809104026020016040519081016040528092919081815260200182805461061090610dda565b801561065d5780601f106106325761010080835404028352916020019161065d565b820191906000526020600020905b81548152906001019060200180831161064057829003601f168201915b50505050509050919050565b6106716106d7565b6001600160a01b0381166106975760405162461bcd60e51b81526004016103ec90611150565b6106a08161071b565b50565b6000818152600260205260409020546001600160a01b03166106a05760405162461bcd60e51b81526004016103ec9061101c565b6006546001600160a01b0316331461058b5760405162461bcd60e51b81526004016103ec90611192565b61042182826040518060200160405280600081525061076d565b600680546001600160a01b038381166001600160a01b0319831681179093556040519116919082907f8be0079c531659141344cd1fd0a4f28419497f9722a3daafe3b4186f6b6457e090600090a35050565b61077783836107a0565b610784600084848461089b565b61046d5760405162461bcd60e51b81526004016103ec906111f1565b6001600160a01b0382166107c65760405162461bcd60e51b81526004016103ec90611233565b6000818152600260205260409020546001600160a01b0316156107fb5760405162461bcd60e51b81526004016103ec90611277565b6000818152600260205260409020546001600160a01b0316156108305760405162461bcd60e51b81526004016103ec90611277565b6001600160a01b038216600081815260036020908152604080832080546001019055848352600290915280822080546001600160a01b0319168417905551839291907fddf252ad1be2c89b69c2b068fc378daa952ba7f163c4a11628f55a4df523b3ef908290a45050565b60006001600160a01b0384163b1561099157604051630a85bd0160e11b81526001600160a01b0385169063150b7a02906108df903390899088908890600401611287565b6020604051808303816000875af192505050801561091a575060408051601f3d908101601f19168201909252610917918101906112d6565b60015b610977573d808015610948576040519150601f19603f3d011682016040523d82523d6000602084013e61094d565b606091505b50805160000361096f5760405162461bcd60e51b81526004016103ec906111f1565b805181602001fd5b6001600160e01b031916630a85bd0160e11b149050610995565b5060015b949350505050565b6001600160e01b031981165b81146106a057600080fd5b80356103158161099d565b6000602082840312156109d4576109d4600080fd5b600061099584846109b4565b8015155b82525050565b6020810161031582846109e0565b60005b83811015610a135781810151838201526020016109fb565b50506000910152565b6000610a26825190565b808452602084019350610a3d8185602086016109f8565b601f01601f19169290920192915050565b60208082528101610a5f8184610a1c565b9392505050565b806109a9565b803561031581610a66565b600060208284031215610a8c57610a8c600080fd5b60006109958484610a6c565b60006001600160a01b038216610315565b6109e481610a98565b602081016103158284610aa9565b6109a981610a98565b803561031581610ac0565b60008060408385031215610aea57610aea600080fd5b6000610af68585610ac9565b9250506020610b0785828601610a6c565b9150509250929050565b600080600060608486031215610b2957610b29600080fd5b6000610b358686610ac9565b9350506020610b4686828701610ac9565b9250506040610b5786828701610a6c565b9150509250925092565b634e487b7160e01b600052604160045260246000fd5b601f19601f830116810181811067ffffffffffffffff82111715610b9d57610b9d610b61565b6040525050565b6000610baf60405190565b9050610bbb8282610b77565b919050565b600067ffffffffffffffff821115610bda57610bda610b61565b601f19601f83011660200192915050565b82818337506000910152565b6000610c0a610c0584610bc0565b610ba4565b905082815260208101848484011115610c2557610c25600080fd5b610c30848285610beb565b509392505050565b600082601f830112610c4c57610c4c600080fd5b8135610995848260208601610bf7565b600060208284031215610c7157610c71600080fd5b813567ffffffffffffffff811115610c8b57610c8b600080fd5b61099584828501610c38565b600060208284031215610cac57610cac600080fd5b60006109958484610ac9565b806109e4565b602081016103158284610cb8565b8015156109a9565b803561031581610ccc565b60008060408385031215610cf557610cf5600080fd5b6000610d018585610ac9565b9250506020610b0785828601610cd4565b60008060008060808587031215610d2b57610d2b600080fd5b6000610d378787610ac9565b9450506020610d4887828801610ac9565b9350506040610d5987828801610a6c565b925050606085013567ffffffffffffffff811115610d7957610d79600080fd5b610d8587828801610c38565b91505092959194509250565b60008060408385031215610da757610da7600080fd5b6000610db38585610ac9565b9250506020610b0785828601610ac9565b634e487b7160e01b600052602260045260246000fd5b600281046001821680610dee57607f821691505b602082108103610e0057610e00610dc4565b50919050565b6015815260006020820174105c1c1c9bdd99481a5cdb89dd08185b1b1bddd959605a1b815291505b5060200190565b6020808252810161031581610e06565b601a81526000602082017f7472616e7366657246726f6d2069736e277420616c6c6f77656400000000000081529150610e2e565b6020808252810161031581610e45565b6000610315610e958381565b90565b610ea183610e89565b815460001960089490940293841b1916921b91909117905550565b600061046d818484610e98565b8181101561042157610edc600082610ebc565b600101610ec9565b601f82111561046d576000818152602090206020601f85010481016020851015610f0b5750805b610f1d6020601f860104830182610ec9565b5050505050565b815167ffffffffffffffff811115610f3e57610f3e610b61565b610f488254610dda565b610f53828285610ee4565b6020601f831160018114610f875760008415610f6f5750858201515b600019600886021c1981166002860217865550610fe0565b600085815260208120601f198616915b82811015610fb75788850151825560209485019460019092019101610f97565b86831015610fd35784890151600019601f89166008021c191682555b6001600288020188555050505b505050505050565b601881526000602082017f4552433732313a20696e76616c696420746f6b656e204944000000000000000081529150610e2e565b6020808252810161031581610fe8565b602981526000602082017f4552433732313a2061646472657373207a65726f206973206e6f7420612076618152683634b21037bbb732b960b91b602082015291505b5060400190565b602080825281016103158161102c565b601f81526000602082017f736574417070726f76616c466f72416c6c2069736e277420616c6c6f7765640081529150610e2e565b6020808252810161031581611085565b601e81526000602082017f736166655472616e7366657246726f6d2069736e277420616c6c6f776564000081529150610e2e565b60208082528101610315816110c9565b602681526000602082017f4f776e61626c653a206e6577206f776e657220697320746865207a65726f206181526564647265737360d01b6020820152915061106e565b602080825281016103158161110d565b60208082527f4f776e61626c653a2063616c6c6572206973206e6f7420746865206f776e657291019081526000610e2e565b6020808252810161031581611160565b603281526000602082017f4552433732313a207472616e7366657220746f206e6f6e20455243373231526581527131b2b4bb32b91034b6b83632b6b2b73a32b960711b6020820152915061106e565b60208082528101610315816111a2565b60208082527f4552433732313a206d696e7420746f20746865207a65726f206164647265737391019081526000610e2e565b6020808252810161031581611201565b601c81526000602082017f4552433732313a20746f6b656e20616c7265616479206d696e7465640000000081529150610e2e565b6020808252810161031581611243565b608081016112958287610aa9565b6112a26020830186610aa9565b6112af6040830185610cb8565b81810360608301526112c18184610a1c565b9695505050505050565b80516103158161099d565b6000602082840312156112eb576112eb600080fd5b600061099584846112cb56fea26469706673582212200ddc5e6c148d091a133a3a3968d0c48e090f5a57a9ed47dbbea0d5e683b9a7bb64736f6c6343000813003360806040523480156200001157600080fd5b506040516200227638038062002276833981016040819052620000349162000599565b6200003f33620001f5565b8260008151811062000055576200005562000644565b6020908102919091010151600b80546001600160a01b0319166001600160a01b039092169190911790558260018151811062000095576200009562000644565b6020908102919091010151600c80546001600160a01b0319166001600160a01b0390921691909117905581600081518110620000d557620000d562000644565b602002602001015160009081620000ed919062000752565b508160018151811062000104576200010462000644565b6020026020010151600190816200011c919062000752565b508160028151811062000133576200013362000644565b6020026020010151600290816200014b919062000752565b508160038151811062000162576200016262000644565b6020026020010151600390816200017a919062000752565b508060008151811062000191576200019162000644565b602090810291909101015160065580600181518110620001b557620001b562000644565b602090810291909101015160075580600281518110620001d957620001d962000644565b6020026020010151600581905560048190555050505062000822565b600f80546001600160a01b038381166001600160a01b0319831681179093556040519116919082907f8be0079c531659141344cd1fd0a4f28419497f9722a3daafe3b4186f6b6457e090600090a35050565b634e487b7160e01b600052604160045260246000fd5b601f19601f83011681018181106001600160401b038211171562000285576200028562000247565b6040525050565b60006200029860405190565b9050620002a682826200025d565b919050565b60006001600160401b03821115620002c757620002c762000247565b5060209081020190565b60006001600160a01b0382165b92915050565b620002ef81620002d1565b8114620002fb57600080fd5b50565b8051620002de81620002e4565b6000620003226200031c84620002ab565b6200028c565b83815290506020808201908402830185811115620003435762000343600080fd5b835b818110156200036b57806200035b8882620002fe565b8452506020928301920162000345565b5050509392505050565b600082601f8301126200038b576200038b600080fd5b81516200039d8482602086016200030b565b949350505050565b60006001600160401b03821115620003c157620003c162000247565b601f19601f83011660200192915050565b60005b83811015620003ef578181015183820152602001620003d5565b50506000910152565b6000620004096200031c84620003a5565b905082815260208101848484011115620004265762000426600080fd5b62000433848285620003d2565b509392505050565b600082601f830112620004515762000451600080fd5b81516200039d848260208601620003f8565b6000620004746200031c84620002ab565b83815290506020808201908402830185811115620004955762000495600080fd5b835b818110156200036b5780516001600160401b03811115620004bb57620004bb600080fd5b808601620004ca89826200043b565b855250506020928301920162000497565b600082601f830112620004f157620004f1600080fd5b81516200039d84826020860162000463565b80620002ef565b8051620002de8162000503565b6000620005286200031c84620002ab565b83815290506020808201908402830185811115620005495762000549600080fd5b835b818110156200036b57806200056188826200050a565b845250602092830192016200054b565b600082601f830112620005875762000587600080fd5b81516200039d84826020860162000517565b600080600060608486031215620005b357620005b3600080fd5b83516001600160401b03811115620005ce57620005ce600080fd5b620005dc8682870162000375565b93505060208401516001600160401b03811115620005fd57620005fd600080fd5b6200060b86828701620004db565b92505060408401516001600160401b038111156200062c576200062c600080fd5b6200063a8682870162000571565b9150509250925092565b634e487b7160e01b600052603260045260246000fd5b634e487b7160e01b600052602260045260246000fd5b6002810460018216806200068557607f821691505b6020821081036200069a576200069a6200065a565b50919050565b6000620002de620006ae8381565b90565b620006bc83620006a0565b815460001960089490940293841b1916921b91909117905550565b6000620006e6818484620006b1565b505050565b818110156200070a5762000701600082620006d7565b600101620006eb565b5050565b601f821115620006e6576000818152602090206020601f85010481016020851015620007375750805b6200074b6020601f860104830182620006eb565b5050505050565b81516001600160401b038111156200076e576200076e62000247565b6200077a825462000670565b620007878282856200070e565b6020601f831160018114620007be5760008415620007a55750858201515b600019600886021c19811660028602178655506200081a565b600085815260208120601f198616915b82811015620007f05788850151825560209485019460019092019101620007ce565b868310156200080d5784890151600019601f89166008021c191682555b6001600288020188555050505b505050505050565b611a4480620008326000396000f3fe608060405234801561001057600080fd5b50600436106101f05760003560e01c8063749956891161010f578063bfebbda8116100a2578063e33696f711610071578063e33696f7146103d8578063e38096f0146103ed578063edca914c14610400578063f2fde38b1461040857600080fd5b8063bfebbda814610396578063c0af2346146103a9578063d6bd5db1146103bc578063d9b6225e146103c557600080fd5b80638043c9c0116100de5780638043c9c0146103625780638a89c14c1461036a5780638da5cb5b1461037d5780639434571b1461038e57600080fd5b806374995689146103165780637721fe5c1461032957806377d1efb41461033c5780637b1ac2511461034f57600080fd5b806355b6ec1d116101875780636fdbd3f6116101565780636fdbd3f6146102ea578063713a3c93146102fd578063715018a614610305578063740ea9a61461030d57600080fd5b806355b6ec1d146102a857806361cec060146102bb57806364471452146102ce5780636afadefb146102d757600080fd5b806320214134116101c3578063202141341461026e578063270821b61461028e578063297449af146102975780632a6ca755146102a057600080fd5b806305ccfd33146101f5578063089cdd0c1461020a57806309e52c12146102285780631f4894b11461023e575b600080fd5b610208610203366004611041565b61041b565b005b61021261046b565b60405161021f91906110d2565b60405180910390f35b61023160085481565b60405161021f91906110f2565b61026161024c366004611136565b600e6020526000908152604090205460ff1681565b60405161021f919061115f565b600b54610281906001600160a01b031681565b60405161021f9190611176565b61023160095481565b61023160055481565b6102126104f9565b6102086102b6366004611195565b610506565b600c54610281906001600160a01b031681565b61023160045481565b6102086102e5366004611136565b6105a2565b600a54610281906001600160a01b031681565b6102086106f8565b6102086108bf565b61023160065481565b6102086103243660046111d2565b6108d3565b6102086103373660046111d2565b610932565b61020861034a366004611041565b610990565b61020861035d366004611245565b6109d5565b610212610b68565b6102816103783660046111d2565b610b75565b600f546001600160a01b0316610281565b610212610b9f565b6102086103a43660046111d2565b610bac565b6102086103b7366004611041565b610c0a565b61023160075481565b6102086103d3366004611041565b610c4f565b6103e0610cdd565b60405161021f91906112ea565b6102086103fb366004611136565b610d3f565b610208610d93565b610208610416366004611136565b610e88565b610423610ec2565b600161042f82826113da565b507f43abd8587b7e2fd4918308a13f0cf9759cdbba18adb47403d2779a67dac06ef860016040516104609190611517565b60405180910390a150565b6000805461047890611311565b80601f01602080910402602001604051908101604052809291908181526020018280546104a490611311565b80156104f15780601f106104c6576101008083540402835291602001916104f1565b820191906000526020600020905b8154815290600101906020018083116104d457829003601f168201915b505050505081565b6003805461047890611311565b61050e610ec2565b60075442106105385760405162461bcd60e51b815260040161052f9061155f565b60405180910390fd5b60065482101561055a5760405162461bcd60e51b815260040161052f906115be565b600882905560098190556040517ff2ccaa626cc9d4a494f70edcc2e8e06f1f533d1494b4000e6b61d523bd537bf39061059690849084906115ce565b60405180910390a15050565b60075442106105c35760405162461bcd60e51b815260040161052f9061155f565b336000908152600e602052604090205460ff1615156001146105f75760405162461bcd60e51b815260040161052f9061161d565b336000908152600e6020526040808220805460ff199081169091556001600160a01b0384168352908220805490911660011790555b600d548110156106c657336001600160a01b0316600d82815481106106535761065361162d565b6000918252602090912001546001600160a01b0316036106b45781600d82815481106106815761068161162d565b9060005260206000200160006101000a8154816001600160a01b0302191690836001600160a01b031602179055506106c6565b806106be81611659565b91505061062c565b507f7478cc8eb40d9aeecde2e2f399de4bfeb61e737a737f3412f2a6043a077e44943382604051610460929190611673565b60065442106107195760405162461bcd60e51b815260040161052f906116c2565b336000908152600e602052604090205460ff16151560011461074d5760405162461bcd60e51b815260040161052f9061161d565b336000908152600e60205260408120805460ff1916905560058054600192906107779084906116d2565b90915550600090505b600d5481101561088557336001600160a01b0316600d82815481106107a7576107a761162d565b6000918252602090912001546001600160a01b03160361087357600d80546107d1906001906116e5565b815481106107e1576107e161162d565b600091825260209091200154600d80546001600160a01b03909216918390811061080d5761080d61162d565b9060005260206000200160006101000a8154816001600160a01b0302191690836001600160a01b03160217905550600d80548061084c5761084c6116f8565b600082815260209020810160001990810180546001600160a01b0319169055019055610885565b8061087d81611659565b915050610780565b507f90cd9e65b809d22b37179b3997ffde6ac5df8905f83e2af169f9dcfbfd824d53336040516108b59190611176565b60405180910390a1565b6108c7610ec2565b6108d16000610eec565b565b6108db610ec2565b6005548110156108fd5760405162461bcd60e51b815260040161052f90611768565b60048190556040517f7912a16bc65fddc53602b6a128feb835b934d3d374e62b1d229f0ea0b0544664906104609083906110f2565b61093a610ec2565b600654811161095b5760405162461bcd60e51b815260040161052f906117bd565b60078190556040517f64fe254a049b2bf9f5756beb1fce549a5971b13c81378906e2152d25972b90bb906104609083906110f2565b610998610ec2565b60036109a482826113da565b507f848e9f060382bf958555423cce59bb0b82d362236369f776dc2bc7b5db192b5d60036040516104609190611517565b336000908152600e602052604090205460ff161515600114610a095760405162461bcd60e51b815260040161052f9061161d565b600854421115610a2b5760405162461bcd60e51b815260040161052f90611801565b6009548282604051602001610a41929190611824565b6040516020818303038152906040528051906020012014610a745760405162461bcd60e51b815260040161052f90611865565b600c546040516370a0823160e01b81526001600160a01b03909116906370a0823190610aa4903390600401611176565b602060405180830381865afa158015610ac1573d6000803e3d6000fd5b505050506040513d601f19601f82011682018060405250810190610ae59190611880565b15610b025760405162461bcd60e51b815260040161052f906118ce565b600c546040516340d097c360e01b81526001600160a01b03909116906340d097c390610b32903390600401611176565b600060405180830381600087803b158015610b4c57600080fd5b505af1158015610b60573d6000803e3d6000fd5b505050505050565b6001805461047890611311565b600d8181548110610b8557600080fd5b6000918252602090912001546001600160a01b0316905081565b6002805461047890611311565b610bb4610ec2565b6006548111610bd55760405162461bcd60e51b815260040161052f90611925565b60068190556040517f83f749c39e7f10426bc8d591c61bcbac26fea26bf5ed757ed6cf0a1c753be269906104609083906110f2565b610c12610ec2565b6002610c1e82826113da565b507fd65307e9549d188f5ca686b92113466953e2c86f75071c922cb6c06a3a52d16860026040516104609190611517565b610c57610ec2565b6006544210610c785760405162461bcd60e51b815260040161052f906116c2565b600c546040516339a0c6f960e01b81526001600160a01b03909116906339a0c6f990610ca89084906004016110d2565b600060405180830381600087803b158015610cc257600080fd5b505af1158015610cd6573d6000803e3d6000fd5b5050505050565b6060600d805480602002602001604051908101604052809291908181526020018280548015610d3557602002820191906000526020600020905b81546001600160a01b03168152600190910190602001808311610d17575b5050505050905090565b610d47610ec2565b600b80546001600160a01b0319166001600160a01b0383169081179091556040517f28abb6d14a7f6e94196258e3c3acf0afce19ef39ea4ffe24e4231b9b4250f4449161046091611176565b6006544210610db45760405162461bcd60e51b815260040161052f906116c2565b336000908152600e602052604090205460ff1615610de45760405162461bcd60e51b815260040161052f90611969565b336000818152600e60205260408120805460ff19166001908117909155600d805480830182559083527fd7b6990105719101dabeb77144f2a3385c8033acd3af97e9423a695e81ad1eb50180546001600160a01b03191690931790925560058054909190610e539084906116e5565b90915550506040517f6464f1c0b927235997ea56a096b2a63209270b55e0bce7589dd8996e79806e6f906108b5903390611176565b610e90610ec2565b6001600160a01b038116610eb65760405162461bcd60e51b815260040161052f906119bc565b610ebf81610eec565b50565b600f546001600160a01b031633146108d15760405162461bcd60e51b815260040161052f906119fe565b600f80546001600160a01b038381166001600160a01b0319831681179093556040519116919082907f8be0079c531659141344cd1fd0a4f28419497f9722a3daafe3b4186f6b6457e090600090a35050565b634e487b7160e01b600052604160045260246000fd5b601f19601f830116810181811067ffffffffffffffff82111715610f7a57610f7a610f3e565b6040525050565b6000610f8c60405190565b9050610f988282610f54565b919050565b600067ffffffffffffffff821115610fb757610fb7610f3e565b601f19601f83011660200192915050565b82818337506000910152565b6000610fe7610fe284610f9d565b610f81565b90508281526020810184848401111561100257611002600080fd5b61100d848285610fc8565b509392505050565b600082601f83011261102957611029600080fd5b8135611039848260208601610fd4565b949350505050565b60006020828403121561105657611056600080fd5b813567ffffffffffffffff81111561107057611070600080fd5b61103984828501611015565b60005b8381101561109757818101518382015260200161107f565b50506000910152565b60006110aa825190565b8084526020840193506110c181856020860161107c565b601f01601f19169290920192915050565b602080825281016110e381846110a0565b9392505050565b805b82525050565b6020810161110082846110ea565b92915050565b60006001600160a01b038216611100565b61112081611106565b8114610ebf57600080fd5b803561110081611117565b60006020828403121561114b5761114b600080fd5b6000611039848461112b565b8015156110ec565b602081016111008284611157565b6110ec81611106565b60208101611100828461116d565b80611120565b803561110081611184565b600080604083850312156111ab576111ab600080fd5b60006111b7858561118a565b92505060206111c88582860161118a565b9150509250929050565b6000602082840312156111e7576111e7600080fd5b6000611039848461118a565b60008083601f84011261120857611208600080fd5b50813567ffffffffffffffff81111561122357611223600080fd5b60208301915083600182028301111561123e5761123e600080fd5b9250929050565b6000806020838503121561125b5761125b600080fd5b823567ffffffffffffffff81111561127557611275600080fd5b611281858286016111f3565b92509250509250929050565b6000611299838361116d565b505060200190565b60006112ab825190565b80845260209384019383018060005b838110156112df5781516112ce888261128d565b9750602083019250506001016112ba565b509495945050505050565b602080825281016110e381846112a1565b634e487b7160e01b600052602260045260246000fd5b60028104600182168061132557607f821691505b602082108103611337576113376112fb565b50919050565b60006111006113498381565b90565b6113558361133d565b815460001960089490940293841b1916921b91909117905550565b600061137d81848461134c565b505050565b8181101561139d57611395600082611370565b600101611382565b5050565b601f82111561137d576000818152602090206020601f850104810160208510156113c85750805b610cd66020601f860104830182611382565b815167ffffffffffffffff8111156113f4576113f4610f3e565b6113fe8254611311565b6114098282856113a1565b6020601f83116001811461143d57600084156114255750858201515b600019600886021c1981166002860217865550610b60565b600085815260208120601f198616915b8281101561146d578885015182556020948501946001909201910161144d565b868310156114895784890151600019601f89166008021c191682555b600160028802018855505050505050505050565b600081546114aa81611311565b8085526020850194506001821680156114ca57600181146114e05761150e565b60ff19831686526020821515028601935061150e565b60008581526020902060005b83811015611508578154888201526001909101906020016114ec565b87019450505b50505092915050565b602080825281016110e3818461149d565b601781526000602082017f4576656e742068617320616c726561647920656e646564000000000000000000815291505b5060200190565b6020808252810161110081611528565b602f81526000602082017f52656564656d61626c652074696d65206d75737420626520677265617465722081526e7468616e2073746172742074696d6560881b602082015291505b5060400190565b602080825281016111008161156f565b604081016115dc82856110ea565b6110e360208301846110ea565b601881526000602082017f596f7520646f206e6f7420686176652061207469636b6574000000000000000081529150611558565b60208082528101611100816115e9565b634e487b7160e01b600052603260045260246000fd5b634e487b7160e01b600052601160045260246000fd5b6000600019820361166c5761166c611643565b5060010190565b60408101611681828561116d565b6110e3602083018461116d565b601981526000602082017f4576656e742068617320616c726561647920737461727465640000000000000081529150611558565b602080825281016111008161168e565b8082018082111561110057611100611643565b8181038181111561110057611100611643565b634e487b7160e01b600052603160045260246000fd5b604081526000602082017f546f74616c207469636b657473206d757374206265206772656174657220746881527f616e206f7220657175616c20746f2072656d61696e696e67207469636b657473602082015291506115b7565b602080825281016111008161170e565b602881526000602082017f456e642074696d65206d7573742062652067726561746572207468616e2073748152676172742074696d6560c01b602082015291506115b7565b6020808252810161110081611778565b601e81526000602082017f596f752063616e6e6f742072656564656d20796f7572204e465420796574000081529150611558565b60208082528101611100816117cd565b600061181e838584610fc8565b50500190565b6000611039828486611811565b601881526000602082017f53656372657420776f726420697320696e636f7272656374000000000000000081529150611558565b6020808252810161110081611831565b805161110081611184565b60006020828403121561189557611895600080fd5b60006110398484611875565b6016815260006020820175165bdd48185b1c9958591e481a185d9948184813919560521b81529150611558565b60208082528101611100816118a1565b602a81526000602082017f53746172742074696d65206d7573742062652067726561746572207468616e2081526973746172742074696d6560b01b602082015291506115b7565b60208082528101611100816118de565b601981526000602082017f596f7520616c726561647920686176652061207469636b65740000000000000081529150611558565b6020808252810161110081611935565b602681526000602082017f4f776e61626c653a206e6577206f776e657220697320746865207a65726f206181526564647265737360d01b602082015291506115b7565b6020808252810161110081611979565b60208082527f4f776e61626c653a2063616c6c6572206973206e6f7420746865206f776e657291019081526000611558565b60208082528101611100816119cc56fea2646970667358221220339a0ec3f2fd82d661ef94af41bfa493c4b9acfe46b59ecde317501f7cd6d57864736f6c63430008130033a2646970667358221220d06af51a2e7447da06cdc145a73d68ade9fe5ef0bd1ce1908a94612b493231d464736f6c63430008130033",
	"devdoc": {
		"author": "LE0xUL",
		"details": "This contract is the standard way to create a new event",
		"kind": "dev",
		"methods": {},
		"title": "MeetdApp Factory",
		"version": 1
	},
	"userdoc": {
		"kind": "user",
		"methods": {
			"mapEventNum(uint256)": {
				"notice": "Mapping to store all the created houses numEvent -> dataEvent"
			},
			"mapIdEvent(bytes32)": {
				"notice": "Relation between eventId (hash nanoId) and eventAddr"
			},
			"numEvents()": {
				"notice": "Store the number of created events"
			}
		},
		"notice": "Create and config New Events",
		"version": 1
	},
	"storageLayout": {
		"storage": [
			{
				"astId": 3672,
				"contract": "contracts/factory/MeetdAppFactory.sol:MeetdAppFactory",
				"label": "numEvents",
				"offset": 0,
				"slot": "0",
				"type": "t_uint256"
			},
			{
				"astId": 3678,
				"contract": "contracts/factory/MeetdAppFactory.sol:MeetdAppFactory",
				"label": "mapIdEvent",
				"offset": 0,
				"slot": "1",
				"type": "t_mapping(t_bytes32,t_contract(MeetdAppEvent)3579)"
			},
			{
				"astId": 3684,
				"contract": "contracts/factory/MeetdAppFactory.sol:MeetdAppFactory",
				"label": "mapEventNum",
				"offset": 0,
				"slot": "2",
				"type": "t_mapping(t_uint256,t_struct(dataEvent)3936_storage)"
			}
		],
		"types": {
			"t_bool": {
				"encoding": "inplace",
				"label": "bool",
				"numberOfBytes": "1"
			},
			"t_bytes32": {
				"encoding": "inplace",
				"label": "bytes32",
				"numberOfBytes": "32"
			},
			"t_contract(MeetdAppEvent)3579": {
				"encoding": "inplace",
				"label": "contract MeetdAppEvent",
				"numberOfBytes": "20"
			},
			"t_mapping(t_bytes32,t_contract(MeetdAppEvent)3579)": {
				"encoding": "mapping",
				"key": "t_bytes32",
				"label": "mapping(bytes32 => contract MeetdAppEvent)",
				"numberOfBytes": "32",
				"value": "t_contract(MeetdAppEvent)3579"
			},
			"t_mapping(t_uint256,t_struct(dataEvent)3936_storage)": {
				"encoding": "mapping",
				"key": "t_uint256",
				"label": "mapping(uint256 => struct dataEvent)",
				"numberOfBytes": "32",
				"value": "t_struct(dataEvent)3936_storage"
			},
			"t_string_storage": {
				"encoding": "bytes",
				"label": "string",
				"numberOfBytes": "32"
			},
			"t_struct(dataEvent)3936_storage": {
				"encoding": "inplace",
				"label": "struct dataEvent",
				"members": [
					{
						"astId": 3930,
						"contract": "contracts/factory/MeetdAppFactory.sol:MeetdAppFactory",
						"label": "active",
						"offset": 0,
						"slot": "0",
						"type": "t_bool"
					},
					{
						"astId": 3932,
						"contract": "contracts/factory/MeetdAppFactory.sol:MeetdAppFactory",
						"label": "eventId",
						"offset": 0,
						"slot": "1",
						"type": "t_string_storage"
					},
					{
						"astId": 3935,
						"contract": "contracts/factory/MeetdAppFactory.sol:MeetdAppFactory",
						"label": "eventAddr",
						"offset": 0,
						"slot": "2",
						"type": "t_contract(MeetdAppEvent)3579"
					}
				],
				"numberOfBytes": "96"
			},
			"t_uint256": {
				"encoding": "inplace",
				"label": "uint256",
				"numberOfBytes": "32"
			}
		}
	}
}