{
  "abi": [
    {
      "inputs": [
        {
          "internalType": "address[]",
          "name": "_varAdr",
          "type": "address[]"
        },
        {
          "internalType": "string[]",
          "name": "_varStr",
          "type": "string[]"
        },
        {
          "internalType": "uint256[]",
          "name": "_varInt",
          "type": "uint256[]"
        }
      ],
      "stateMutability": "nonpayable",
      "type": "constructor"
    },
    {
      "anonymous": false,
      "inputs": [
        {
          "indexed": false,
          "internalType": "address",
          "name": "buyer",
          "type": "address"
        }
      ],
      "name": "BoughtTicket",
      "type": "event"
    },
    {
      "anonymous": false,
      "inputs": [
        {
          "indexed": true,
          "internalType": "address",
          "name": "previousOwner",
          "type": "address"
        },
        {
          "indexed": true,
          "internalType": "address",
          "name": "newOwner",
          "type": "address"
        }
      ],
      "name": "OwnershipTransferred",
      "type": "event"
    },
    {
      "anonymous": false,
      "inputs": [
        {
          "indexed": false,
          "internalType": "address",
          "name": "buyer",
          "type": "address"
        }
      ],
      "name": "RefundedTicket",
      "type": "event"
    },
    {
      "anonymous": false,
      "inputs": [
        {
          "indexed": false,
          "internalType": "address",
          "name": "buyer",
          "type": "address"
        },
        {
          "indexed": false,
          "internalType": "address",
          "name": "newOwner",
          "type": "address"
        }
      ],
      "name": "TransferredTicket",
      "type": "event"
    },
    {
      "anonymous": false,
      "inputs": [
        {
          "indexed": false,
          "internalType": "string",
          "name": "eventDescription",
          "type": "string"
        }
      ],
      "name": "UpdatedEventDescription",
      "type": "event"
    },
    {
      "anonymous": false,
      "inputs": [
        {
          "indexed": false,
          "internalType": "uint256",
          "name": "eventEndTime",
          "type": "uint256"
        }
      ],
      "name": "UpdatedEventEndTime",
      "type": "event"
    },
    {
      "anonymous": false,
      "inputs": [
        {
          "indexed": false,
          "internalType": "string",
          "name": "eventLocation",
          "type": "string"
        }
      ],
      "name": "UpdatedEventLocation",
      "type": "event"
    },
    {
      "anonymous": false,
      "inputs": [
        {
          "indexed": false,
          "internalType": "string",
          "name": "eventName",
          "type": "string"
        }
      ],
      "name": "UpdatedEventName",
      "type": "event"
    },
    {
      "anonymous": false,
      "inputs": [
        {
          "indexed": false,
          "internalType": "address",
          "name": "eventOwner",
          "type": "address"
        }
      ],
      "name": "UpdatedEventOwner",
      "type": "event"
    },
    {
      "anonymous": false,
      "inputs": [
        {
          "indexed": false,
          "internalType": "uint256",
          "name": "eventStartTime",
          "type": "uint256"
        }
      ],
      "name": "UpdatedEventStartTime",
      "type": "event"
    },
    {
      "anonymous": false,
      "inputs": [
        {
          "indexed": false,
          "internalType": "uint256",
          "name": "eventTotalTickets",
          "type": "uint256"
        }
      ],
      "name": "UpdatedEventTotalTickets",
      "type": "event"
    },
    {
      "anonymous": false,
      "inputs": [
        {
          "indexed": false,
          "internalType": "uint256",
          "name": "eventReedemableTime",
          "type": "uint256"
        },
        {
          "indexed": false,
          "internalType": "bytes32",
          "name": "eventSecretWordHash",
          "type": "bytes32"
        }
      ],
      "name": "UpdatedReedemableTimeAndSecretWordHash",
      "type": "event"
    },
    {
      "inputs": [],
      "name": "buyTicket",
      "outputs": [],
      "stateMutability": "nonpayable",
      "type": "function"
    },
    {
      "inputs": [
        {
          "internalType": "address",
          "name": "",
          "type": "address"
        }
      ],
      "name": "eventAttendees",
      "outputs": [
        {
          "internalType": "bool",
          "name": "",
          "type": "bool"
        }
      ],
      "stateMutability": "view",
      "type": "function"
    },
    {
      "inputs": [],
      "name": "eventDescription",
      "outputs": [
        {
          "internalType": "string",
          "name": "",
          "type": "string"
        }
      ],
      "stateMutability": "view",
      "type": "function"
    },
    {
      "inputs": [],
      "name": "eventEndTime",
      "outputs": [
        {
          "internalType": "uint256",
          "name": "",
          "type": "uint256"
        }
      ],
      "stateMutability": "view",
      "type": "function"
    },
    {
      "inputs": [],
      "name": "eventFactory",
      "outputs": [
        {
          "internalType": "address",
          "name": "",
          "type": "address"
        }
      ],
      "stateMutability": "view",
      "type": "function"
    },
    {
      "inputs": [],
      "name": "eventId",
      "outputs": [
        {
          "internalType": "string",
          "name": "",
          "type": "string"
        }
      ],
      "stateMutability": "view",
      "type": "function"
    },
    {
      "inputs": [],
      "name": "eventLocation",
      "outputs": [
        {
          "internalType": "string",
          "name": "",
          "type": "string"
        }
      ],
      "stateMutability": "view",
      "type": "function"
    },
    {
      "inputs": [],
      "name": "eventName",
      "outputs": [
        {
          "internalType": "string",
          "name": "",
          "type": "string"
        }
      ],
      "stateMutability": "view",
      "type": "function"
    },
    {
      "inputs": [],
      "name": "eventNfts",
      "outputs": [
        {
          "internalType": "address",
          "name": "",
          "type": "address"
        }
      ],
      "stateMutability": "view",
      "type": "function"
    },
    {
      "inputs": [],
      "name": "eventOwner",
      "outputs": [
        {
          "internalType": "address",
          "name": "",
          "type": "address"
        }
      ],
      "stateMutability": "view",
      "type": "function"
    },
    {
      "inputs": [],
      "name": "eventReedemableTime",
      "outputs": [
        {
          "internalType": "uint256",
          "name": "",
          "type": "uint256"
        }
      ],
      "stateMutability": "view",
      "type": "function"
    },
    {
      "inputs": [],
      "name": "eventRemainingTickets",
      "outputs": [
        {
          "internalType": "uint256",
          "name": "",
          "type": "uint256"
        }
      ],
      "stateMutability": "view",
      "type": "function"
    },
    {
      "inputs": [],
      "name": "eventSecretWordHash",
      "outputs": [
        {
          "internalType": "bytes32",
          "name": "",
          "type": "bytes32"
        }
      ],
      "stateMutability": "view",
      "type": "function"
    },
    {
      "inputs": [],
      "name": "eventStartTime",
      "outputs": [
        {
          "internalType": "uint256",
          "name": "",
          "type": "uint256"
        }
      ],
      "stateMutability": "view",
      "type": "function"
    },
    {
      "inputs": [],
      "name": "eventTotalTickets",
      "outputs": [
        {
          "internalType": "uint256",
          "name": "",
          "type": "uint256"
        }
      ],
      "stateMutability": "view",
      "type": "function"
    },
    {
      "inputs": [],
      "name": "owner",
      "outputs": [
        {
          "internalType": "address",
          "name": "",
          "type": "address"
        }
      ],
      "stateMutability": "view",
      "type": "function"
    },
    {
      "inputs": [
        {
          "internalType": "string",
          "name": "_eventSecretWord",
          "type": "string"
        }
      ],
      "name": "reedemNft",
      "outputs": [],
      "stateMutability": "nonpayable",
      "type": "function"
    },
    {
      "inputs": [],
      "name": "refundTicket",
      "outputs": [],
      "stateMutability": "nonpayable",
      "type": "function"
    },
    {
      "inputs": [],
      "name": "renounceOwnership",
      "outputs": [],
      "stateMutability": "nonpayable",
      "type": "function"
    },
    {
      "inputs": [
        {
          "internalType": "address",
          "name": "newOwner",
          "type": "address"
        }
      ],
      "name": "transferOwnership",
      "outputs": [],
      "stateMutability": "nonpayable",
      "type": "function"
    },
    {
      "inputs": [
        {
          "internalType": "address",
          "name": "_newOwner",
          "type": "address"
        }
      ],
      "name": "transferTicket",
      "outputs": [],
      "stateMutability": "nonpayable",
      "type": "function"
    },
    {
      "inputs": [
        {
          "internalType": "string",
          "name": "_eventDescription",
          "type": "string"
        }
      ],
      "name": "updateEventDescription",
      "outputs": [],
      "stateMutability": "nonpayable",
      "type": "function"
    },
    {
      "inputs": [
        {
          "internalType": "uint256",
          "name": "_eventEndTime",
          "type": "uint256"
        }
      ],
      "name": "updateEventEndTime",
      "outputs": [],
      "stateMutability": "nonpayable",
      "type": "function"
    },
    {
      "inputs": [
        {
          "internalType": "string",
          "name": "_eventLocation",
          "type": "string"
        }
      ],
      "name": "updateEventLocation",
      "outputs": [],
      "stateMutability": "nonpayable",
      "type": "function"
    },
    {
      "inputs": [
        {
          "internalType": "string",
          "name": "_eventName",
          "type": "string"
        }
      ],
      "name": "updateEventName",
      "outputs": [],
      "stateMutability": "nonpayable",
      "type": "function"
    },
    {
      "inputs": [
        {
          "internalType": "address",
          "name": "_eventOwner",
          "type": "address"
        }
      ],
      "name": "updateEventOwner",
      "outputs": [],
      "stateMutability": "nonpayable",
      "type": "function"
    },
    {
      "inputs": [
        {
          "internalType": "uint256",
          "name": "_eventStartTime",
          "type": "uint256"
        }
      ],
      "name": "updateEventStartTime",
      "outputs": [],
      "stateMutability": "nonpayable",
      "type": "function"
    },
    {
      "inputs": [
        {
          "internalType": "uint256",
          "name": "_eventTotalTickets",
          "type": "uint256"
        }
      ],
      "name": "updateEventTotalTickets",
      "outputs": [],
      "stateMutability": "nonpayable",
      "type": "function"
    }
  ],
  "bytecode": {
    "object": "0x60806040523480156200001157600080fd5b506040516200182f3803806200182f833981016040819052620000349162000434565b6200003f33620001f5565b8260008151811062000055576200005562000539565b6020908102919091010151600b80546001600160a01b0319166001600160a01b039092169190911790558260018151811062000095576200009562000539565b6020908102919091010151600c80546001600160a01b0319166001600160a01b0390921691909117905581600081518110620000d557620000d562000539565b602002602001015160009081620000ed9190620005de565b508160018151811062000104576200010462000539565b6020026020010151600190816200011c9190620005de565b508160028151811062000133576200013362000539565b6020026020010151600290816200014b9190620005de565b508160038151811062000162576200016262000539565b6020026020010151600390816200017a9190620005de565b508060008151811062000191576200019162000539565b602090810291909101015160065580600181518110620001b557620001b562000539565b602090810291909101015160075580600281518110620001d957620001d962000539565b60200260200101516005819055600481905550505050620006aa565b600e80546001600160a01b038381166001600160a01b0319831681179093556040519116919082907f8be0079c531659141344cd1fd0a4f28419497f9722a3daafe3b4186f6b6457e090600090a35050565b634e487b7160e01b600052604160045260246000fd5b604051601f8201601f191681016001600160401b038111828210171562000288576200028862000247565b604052919050565b60006001600160401b03821115620002ac57620002ac62000247565b5060051b60200190565b6000601f8381840112620002c957600080fd5b82516020620002e2620002dc8362000290565b6200025d565b82815260059290921b850181019181810190878411156200030257600080fd5b8287015b84811015620003bb5780516001600160401b0380821115620003285760008081fd5b818a0191508a603f8301126200033e5760008081fd5b858201518181111562000355576200035562000247565b62000368818a01601f191688016200025d565b915080825260408c81838601011115620003825760008081fd5b60005b82811015620003a2578481018201518482018a0152880162000385565b5050600090820187015284525091830191830162000306565b50979650505050505050565b600082601f830112620003d957600080fd5b81516020620003ec620002dc8362000290565b82815260059290921b840181019181810190868411156200040c57600080fd5b8286015b8481101562000429578051835291830191830162000410565b509695505050505050565b6000806000606084860312156200044a57600080fd5b83516001600160401b03808211156200046257600080fd5b818601915086601f8301126200047757600080fd5b815160206200048a620002dc8362000290565b82815260059290921b8401810191818101908a841115620004aa57600080fd5b948201945b83861015620004e15785516001600160a01b0381168114620004d15760008081fd5b82529482019490820190620004af565b91890151919750909350505080821115620004fb57600080fd5b6200050987838801620002b6565b935060408601519150808211156200052057600080fd5b506200052f86828701620003c7565b9150509250925092565b634e487b7160e01b600052603260045260246000fd5b600181811c908216806200056457607f821691505b6020821081036200058557634e487b7160e01b600052602260045260246000fd5b50919050565b601f821115620005d957600081815260208120601f850160051c81016020861015620005b45750805b601f850160051c820191505b81811015620005d557828155600101620005c0565b5050505b505050565b81516001600160401b03811115620005fa57620005fa62000247565b62000612816200060b84546200054f565b846200058b565b602080601f8311600181146200064a5760008415620006315750858301515b600019600386901b1c1916600185901b178555620005d5565b600085815260208120601f198616915b828110156200067b578886015182559484019460019091019084016200065a565b50858210156200069a5787850151600019600388901b60f8161c191681555b5050505050600190811b01905550565b61117580620006ba6000396000f3fe608060405234801561001057600080fd5b50600436106101c45760003560e01c8063740ea9a6116100f95780639434571b11610097578063d6bd5db111610071578063d6bd5db114610379578063e38096f014610382578063edca914c14610395578063f2fde38b1461039d57600080fd5b80639434571b1461034b578063bfebbda814610353578063c0af23461461036657600080fd5b806377d1efb4116100d357806377d1efb41461030c5780637b1ac2511461031f5780638043c9c0146103325780638da5cb5b1461033a57600080fd5b8063740ea9a6146102dd57806374995689146102e65780637721fe5c146102f957600080fd5b80632a6ca755116101665780636afadefb116101405780636afadefb146102a75780636fdbd3f6146102ba578063713a3c93146102cd578063715018a6146102d557600080fd5b80632a6ca7551461028357806361cec0601461028b578063644714521461029e57600080fd5b80631f4894b1116101a25780631f4894b1146102135780632021413414610246578063270821b614610271578063297449af1461027a57600080fd5b806305ccfd33146101c9578063089cdd0c146101de57806309e52c12146101fc575b600080fd5b6101dc6101d7366004610cf4565b6103b0565b005b6101e6610400565b6040516101f39190610da5565b60405180910390f35b61020560085481565b6040519081526020016101f3565b610236610221366004610df3565b600d6020526000908152604090205460ff1681565b60405190151581526020016101f3565b600b54610259906001600160a01b031681565b6040516001600160a01b0390911681526020016101f3565b61020560095481565b61020560055481565b6101e661048e565b600c54610259906001600160a01b031681565b61020560045481565b6101dc6102b5366004610df3565b61049b565b600a54610259906001600160a01b031681565b6101dc610544565b6101dc6105dd565b61020560065481565b6101dc6102f4366004610e23565b6105f1565b6101dc610307366004610e23565b6106a8565b6101dc61031a366004610cf4565b610747565b6101dc61032d366004610e3c565b61078c565b6101e661099e565b600e546001600160a01b0316610259565b6101e66109ab565b6101dc610361366004610e23565b6109b8565b6101dc610374366004610cf4565b610a59565b61020560075481565b6101dc610390366004610df3565b610a9e565b6101dc610af4565b6101dc6103ab366004610df3565b610bb9565b6103b8610c32565b60016103c48282610f33565b507f43abd8587b7e2fd4918308a13f0cf9759cdbba18adb47403d2779a67dac06ef860016040516103f59190610ff3565b60405180910390a150565b6000805461040d90610eae565b80601f016020809104026020016040519081016040528092919081815260200182805461043990610eae565b80156104865780601f1061045b57610100808354040283529160200191610486565b820191906000526020600020905b81548152906001019060200180831161046957829003601f168201915b505050505081565b6003805461040d90610eae565b336000908152600d602052604090205460ff1615156001146104d85760405162461bcd60e51b81526004016104cf9061107e565b60405180910390fd5b336000818152600d60209081526040808320805460ff199081169091556001600160a01b03861680855293829020805490911660011790558051938452908301919091527f7478cc8eb40d9aeecde2e2f399de4bfeb61e737a737f3412f2a6043a077e449491016103f5565b336000908152600d602052604090205460ff1615156001146105785760405162461bcd60e51b81526004016104cf9061107e565b336000908152600d60205260408120805460ff1916905560058054600192906105a29084906110cb565b90915550506040513381527f90cd9e65b809d22b37179b3997ffde6ac5df8905f83e2af169f9dcfbfd824d53906020015b60405180910390a1565b6105e5610c32565b6105ef6000610c8c565b565b6105f9610c32565b600554811015610673576040805162461bcd60e51b81526020600482015260248101919091527f546f74616c207469636b657473206d757374206265206772656174657220746860448201527f616e206f7220657175616c20746f2072656d61696e696e67207469636b65747360648201526084016104cf565b60048190556040518181527f7912a16bc65fddc53602b6a128feb835b934d3d374e62b1d229f0ea0b0544664906020016103f5565b6106b0610c32565b60065481116107125760405162461bcd60e51b815260206004820152602860248201527f456e642074696d65206d7573742062652067726561746572207468616e2073746044820152676172742074696d6560c01b60648201526084016104cf565b60078190556040518181527f64fe254a049b2bf9f5756beb1fce549a5971b13c81378906e2152d25972b90bb906020016103f5565b61074f610c32565b600361075b8282610f33565b507f848e9f060382bf958555423cce59bb0b82d362236369f776dc2bc7b5db192b5d60036040516103f59190610ff3565b336000908152600d602052604090205460ff1615156001146107c05760405162461bcd60e51b81526004016104cf9061107e565b6008544211156108125760405162461bcd60e51b815260206004820152601e60248201527f596f752063616e6e6f742072656564656d20796f7572204e465420796574000060448201526064016104cf565b60095482826040516020016108289291906110e4565b604051602081830303815290604052805190602001201461088b5760405162461bcd60e51b815260206004820152601860248201527f53656372657420776f726420697320696e636f7272656374000000000000000060448201526064016104cf565b600c546040516370a0823160e01b81523360048201526001600160a01b03909116906370a0823190602401602060405180830381865afa1580156108d3573d6000803e3d6000fd5b505050506040513d601f19601f820116820180604052508101906108f79190611113565b1561093d5760405162461bcd60e51b8152602060048201526016602482015275165bdd48185b1c9958591e481a185d9948184813919560521b60448201526064016104cf565b600c546040516340d097c360e01b81523360048201526001600160a01b03909116906340d097c390602401600060405180830381600087803b15801561098257600080fd5b505af1158015610996573d6000803e3d6000fd5b505050505050565b6001805461040d90610eae565b6002805461040d90610eae565b6109c0610c32565b6006548111610a245760405162461bcd60e51b815260206004820152602a60248201527f53746172742074696d65206d7573742062652067726561746572207468616e2060448201526973746172742074696d6560b01b60648201526084016104cf565b60068190556040518181527f83f749c39e7f10426bc8d591c61bcbac26fea26bf5ed757ed6cf0a1c753be269906020016103f5565b610a61610c32565b6002610a6d8282610f33565b507fd65307e9549d188f5ca686b92113466953e2c86f75071c922cb6c06a3a52d16860026040516103f59190610ff3565b610aa6610c32565b600b80546001600160a01b0319166001600160a01b0383169081179091556040519081527f28abb6d14a7f6e94196258e3c3acf0afce19ef39ea4ffe24e4231b9b4250f444906020016103f5565b336000908152600d602052604090205460ff1615610b545760405162461bcd60e51b815260206004820152601960248201527f596f7520616c726561647920686176652061207469636b65740000000000000060448201526064016104cf565b336000908152600d60205260408120805460ff191660019081179091556005805491929091610b8490849061112c565b90915550506040513381527f6464f1c0b927235997ea56a096b2a63209270b55e0bce7589dd8996e79806e6f906020016105d3565b610bc1610c32565b6001600160a01b038116610c265760405162461bcd60e51b815260206004820152602660248201527f4f776e61626c653a206e6577206f776e657220697320746865207a65726f206160448201526564647265737360d01b60648201526084016104cf565b610c2f81610c8c565b50565b600e546001600160a01b031633146105ef5760405162461bcd60e51b815260206004820181905260248201527f4f776e61626c653a2063616c6c6572206973206e6f7420746865206f776e657260448201526064016104cf565b600e80546001600160a01b038381166001600160a01b0319831681179093556040519116919082907f8be0079c531659141344cd1fd0a4f28419497f9722a3daafe3b4186f6b6457e090600090a35050565b634e487b7160e01b600052604160045260246000fd5b600060208284031215610d0657600080fd5b813567ffffffffffffffff80821115610d1e57600080fd5b818401915084601f830112610d3257600080fd5b813581811115610d4457610d44610cde565b604051601f8201601f19908116603f01168101908382118183101715610d6c57610d6c610cde565b81604052828152876020848701011115610d8557600080fd5b826020860160208301376000928101602001929092525095945050505050565b600060208083528351808285015260005b81811015610dd257858101830151858201604001528201610db6565b506000604082860101526040601f19601f8301168501019250505092915050565b600060208284031215610e0557600080fd5b81356001600160a01b0381168114610e1c57600080fd5b9392505050565b600060208284031215610e3557600080fd5b5035919050565b60008060208385031215610e4f57600080fd5b823567ffffffffffffffff80821115610e6757600080fd5b818501915085601f830112610e7b57600080fd5b813581811115610e8a57600080fd5b866020828501011115610e9c57600080fd5b60209290920196919550909350505050565b600181811c90821680610ec257607f821691505b602082108103610ee257634e487b7160e01b600052602260045260246000fd5b50919050565b601f821115610f2e57600081815260208120601f850160051c81016020861015610f0f5750805b601f850160051c820191505b8181101561099657828155600101610f1b565b505050565b815167ffffffffffffffff811115610f4d57610f4d610cde565b610f6181610f5b8454610eae565b84610ee8565b602080601f831160018114610f965760008415610f7e5750858301515b600019600386901b1c1916600185901b178555610996565b600085815260208120601f198616915b82811015610fc557888601518255948401946001909101908401610fa6565b5085821015610fe35787850151600019600388901b60f8161c191681555b5050505050600190811b01905550565b600060208083526000845461100781610eae565b80848701526040600180841660008114611028576001811461104257611070565b60ff1985168984015283151560051b890183019550611070565b896000528660002060005b858110156110685781548b820186015290830190880161104d565b8a0184019650505b509398975050505050505050565b60208082526018908201527f596f7520646f206e6f7420686176652061207469636b65740000000000000000604082015260600190565b634e487b7160e01b600052601160045260246000fd5b808201808211156110de576110de6110b5565b92915050565b60208152816020820152818360408301376000818301604090810191909152601f909201601f19160101919050565b60006020828403121561112557600080fd5b5051919050565b818103818111156110de576110de6110b556fea264697066735822122091075735d6e6ed50f01e35a886ead4c254dcfe5e68bee1799654c870bae1106564736f6c63430008150033",
    "linkReferences": {}
  },
  "methodIdentifiers": {
    "buyTicket()": "edca914c",
    "eventAttendees(address)": "1f4894b1",
    "eventDescription()": "9434571b",
    "eventEndTime()": "d6bd5db1",
    "eventFactory()": "6fdbd3f6",
    "eventId()": "089cdd0c",
    "eventLocation()": "2a6ca755",
    "eventName()": "8043c9c0",
    "eventNfts()": "61cec060",
    "eventOwner()": "20214134",
    "eventReedemableTime()": "09e52c12",
    "eventRemainingTickets()": "297449af",
    "eventSecretWordHash()": "270821b6",
    "eventStartTime()": "740ea9a6",
    "eventTotalTickets()": "64471452",
    "owner()": "8da5cb5b",
    "reedemNft(string)": "7b1ac251",
    "refundTicket()": "713a3c93",
    "renounceOwnership()": "715018a6",
    "transferOwnership(address)": "f2fde38b",
    "transferTicket(address)": "6afadefb",
    "updateEventDescription(string)": "c0af2346",
    "updateEventEndTime(uint256)": "7721fe5c",
    "updateEventLocation(string)": "77d1efb4",
    "updateEventName(string)": "05ccfd33",
    "updateEventOwner(address)": "e38096f0",
    "updateEventStartTime(uint256)": "bfebbda8",
    "updateEventTotalTickets(uint256)": "74995689"
  },
  "id": 1
}