{
  "address": "0xe99e113E05D305143B728442D868664F65cc50A2",
  "abi": [
    {
      "anonymous": false,
      "inputs": [
        {
          "indexed": false,
          "internalType": "string",
          "name": "eventId",
          "type": "string"
        }
      ],
      "name": "createdEvent",
      "type": "event"
    },
    {
      "inputs": [
        {
          "internalType": "string[]",
          "name": "_varStr",
          "type": "string[]"
        },
        {
          "internalType": "uint256[]",
          "name": "_varInt",
          "type": "uint256[]"
        }
      ],
      "name": "CreateEvent",
      "outputs": [],
      "stateMutability": "nonpayable",
      "type": "function"
    },
    {
      "inputs": [
        {
          "internalType": "uint256",
          "name": "",
          "type": "uint256"
        }
      ],
      "name": "mapEventNum",
      "outputs": [
        {
          "internalType": "bool",
          "name": "active",
          "type": "bool"
        },
        {
          "internalType": "string",
          "name": "eventId",
          "type": "string"
        },
        {
          "internalType": "contract MeetdAppEvent",
          "name": "eventAddr",
          "type": "address"
        }
      ],
      "stateMutability": "view",
      "type": "function"
    },
    {
      "inputs": [
        {
          "internalType": "bytes32",
          "name": "",
          "type": "bytes32"
        }
      ],
      "name": "mapIdEvent",
      "outputs": [
        {
          "internalType": "contract MeetdAppEvent",
          "name": "",
          "type": "address"
        }
      ],
      "stateMutability": "view",
      "type": "function"
    },
    {
      "inputs": [],
      "name": "numEvents",
      "outputs": [
        {
          "internalType": "uint256",
          "name": "",
          "type": "uint256"
        }
      ],
      "stateMutability": "view",
      "type": "function"
    }
  ],
  "transactionHash": "0x7b1d07af523fd47ebfb879ac5d57d0419fa3bf9eb32446ef0a3af2323ce5d0f2",
  "args": [],
  "numDeployments": 1,
  "solcInputHash": "6681260761c428bcba5d4334548ba5a9",
  "bytecode": "0x608060405234801561001057600080fd5b50614118806100206000396000f3fe60806040523480156200001157600080fd5b5060043610620000525760003560e01c806334cf562b14620000575780635bad5c21146200007957806364493ac314620000b4578063e702c15314620000dc575b600080fd5b6200006160005481565b60405162000070919062000648565b60405180910390f35b620000a56200008a36600462000666565b6001602052600090815260409020546001600160a01b031681565b604051620000709190620006dd565b620000cb620000c536600462000666565b620000f5565b604051620000709392919062000751565b620000f3620000ed366004620009ea565b620001b5565b005b6002602052600090815260409020805460018201805460ff90921692916200011d9062000a7c565b80601f01602080910402602001604051908101604052809291908181526020018280546200014b9062000a7c565b80156200019c5780601f1062000170576101008083540402835291602001916200019c565b820191906000526020600020905b8154815290600101906020018083116200017e57829003601f168201915b505050600290930154919250506001600160a01b031683565b4281600081518110620001cc57620001cc62000ac2565b60200260200101511015620001fe5760405162461bcd60e51b8152600401620001f59062000b04565b60405180910390fd5b8060008151811062000214576200021462000ac2565b6020026020010151816001600281111562000233576200023362000aac565b8151811062000246576200024662000ac2565b6020026020010151116200026e5760405162461bcd60e51b8152600401620001f59062000b3e565b60008160028151811062000286576200028662000ac2565b602002602001015111620002ae5760405162461bcd60e51b8152600401620001f59062000b78565b600082600481518110620002c657620002c662000ac2565b60200260200101518360056006811115620002e557620002e562000aac565b81518110620002f857620002f862000ac2565b60200260200101518460068081111562000316576200031662000aac565b8151811062000329576200032962000ac2565b60200260200101516040516200033f9062000624565b6200034d9392919062000b8a565b604051809103906000f0801580156200036a573d6000803e3d6000fd5b5060408051600280825260608201835292935060009290916020830190803683370190505090503381600081518110620003a857620003a862000ac2565b6001600160a01b03909216602092830291909101909101528181600181518110620003d757620003d762000ac2565b60200260200101906001600160a01b031690816001600160a01b03168152505060008185856040516200040a9062000632565b620004189392919062000d25565b604051809103906000f08015801562000435573d6000803e3d6000fd5b5060405163f2fde38b60e01b81529091506001600160a01b0384169063f2fde38b906200046790849060040162000d64565b600060405180830381600087803b1580156200048257600080fd5b505af115801562000497573d6000803e3d6000fd5b5050600080549250905080620004ad8362000d8a565b90915550506040805160608101909152600181526020810186600081518110620004db57620004db62000ac2565b60209081029190910181015182526001600160a01b0384169181019190915260008054815260028252604090208251815460ff19169015151781559082015160018201906200052b908262000e56565b5060409190910151600290910180546001600160a01b0319166001600160a01b0390921691909117905560008581815181106200056c576200056c62000ac2565b602002602001015160405160200162000586919062000f4c565b60408051808303601f1901815291815281516020928301206000818152600190935290822080546001600160a01b0319166001600160a01b03861617905591507f792061a44a6be3c666f6763945c46e98e3fcfa677607d5e36b08fb56be451fdd90879081518110620005fd57620005fd62000ac2565b602002602001015160405162000614919062000f5a565b60405180910390a1505050505050565b6115578062000f6e83390190565b611c1e80620024c583390190565b805b82525050565b6020810162000658828462000640565b92915050565b803562000658565b6000602082840312156200067d576200067d600080fd5b60006200068b84846200065e565b949350505050565b6000620006586001600160a01b038316620006ac565b90565b6001600160a01b031690565b6000620006588262000693565b60006200065882620006b8565b6200064281620006c5565b60208101620006588284620006d2565b80151562000642565b60005b8381101562000713578181015183820152602001620006f9565b50506000910152565b600062000727825190565b80845260208401935062000740818560208601620006f6565b601f01601f19169290920192915050565b60608101620007618286620006ed565b81810360208301526200077581856200071c565b90506200068b6040830184620006d2565b634e487b7160e01b600052604160045260246000fd5b601f19601f830116810181811067ffffffffffffffff82111715620007c557620007c562000786565b6040525050565b6000620007d860405190565b9050620007e682826200079c565b919050565b600067ffffffffffffffff82111562000808576200080862000786565b5060209081020190565b600067ffffffffffffffff8211156200082f576200082f62000786565b601f19601f83011660200192915050565b82818337506000910152565b6000620008636200085d8462000812565b620007cc565b905082815260208101848484011115620008805762000880600080fd5b6200088d84828562000840565b509392505050565b600082601f830112620008ab57620008ab600080fd5b81356200068b8482602086016200084c565b6000620008ce6200085d84620007eb565b83815290506020808201908402830185811115620008ef57620008ef600080fd5b835b818110156200093657803567ffffffffffffffff811115620009165762000916600080fd5b80860162000925898262000895565b8552505060209283019201620008f1565b5050509392505050565b600082601f830112620009565762000956600080fd5b81356200068b848260208601620008bd565b6000620009796200085d84620007eb565b838152905060208082019084028301858111156200099a576200099a600080fd5b835b81811015620009365780620009b288826200065e565b845250602092830192016200099c565b600082601f830112620009d857620009d8600080fd5b81356200068b84826020860162000968565b6000806040838503121562000a025762000a02600080fd5b823567ffffffffffffffff81111562000a1e5762000a1e600080fd5b62000a2c8582860162000940565b925050602083013567ffffffffffffffff81111562000a4e5762000a4e600080fd5b62000a5c85828601620009c2565b9150509250929050565b634e487b7160e01b600052602260045260246000fd5b60028104600182168062000a9157607f821691505b60208210810362000aa65762000aa662000a66565b50919050565b634e487b7160e01b600052602160045260246000fd5b634e487b7160e01b600052603260045260246000fd5b6012815260006020820171496e76616c6964207374617274204461746560701b815291505b5060200190565b60208082528101620006588162000ad8565b601081526000602082016f496e76616c696420656e64204461746560801b8152915062000afd565b60208082528101620006588162000b16565b601081526000602082016f496e76616c696420636170616369747960801b8152915062000afd565b60208082528101620006588162000b50565b6060808252810162000b9d81866200071c565b9050818103602083015262000bb381856200071c565b9050818103604083015262000bc981846200071c565b95945050505050565b60006001600160a01b03821662000658565b620006428162000bd2565b600062000bfd838362000be4565b505060200190565b600062000c10825190565b80845260209384019383018060005b8381101562000c4857815162000c36888262000bef565b97506020830192505060010162000c1f565b509495945050505050565b600062000c6183836200071c565b9392505050565b600062000c73825190565b8084526020840193508360208202850162000c8e8560200190565b8060005b8581101562000cc7578484038952815162000cae858262000c53565b94506020830160209a909a019992505060010162000c92565b5091979650505050505050565b600062000bfd838362000640565b600062000ced825190565b80845260209384019383018060005b8381101562000c4857815162000d13888262000cd4565b97506020830192505060010162000cfc565b6060808252810162000d38818662000c05565b9050818103602083015262000d4e818562000c68565b9050818103604083015262000bc9818462000ce2565b6020810162000658828462000be4565b634e487b7160e01b600052601160045260246000fd5b6000600019820362000da05762000da062000d74565b5060010190565b600062000658620006a98381565b62000dc08362000da7565b815460001960089490940293841b1916921b91909117905550565b600062000dea81848462000db5565b505050565b8181101562000e0e5762000e0560008262000ddb565b60010162000def565b5050565b601f82111562000dea576000818152602090206020601f8501048101602085101562000e3b5750805b62000e4f6020601f86010483018262000def565b5050505050565b815167ffffffffffffffff81111562000e735762000e7362000786565b62000e7f825462000a7c565b62000e8c82828562000e12565b6020601f83116001811462000ec3576000841562000eaa5750858201515b600019600886021c198116600286021786555062000f1f565b600085815260208120601f198616915b8281101562000ef5578885015182556020948501946001909201910162000ed3565b8683101562000f125784890151600019601f89166008021c191682555b6001600288020188555050505b505050505050565b600062000f32825190565b62000f42818560208601620006f6565b9290920192915050565b600062000c61828462000f27565b6020808252810162000c6181846200071c56fe60806040523480156200001157600080fd5b50604051620015573803806200155783398101604081905262000034916200020e565b82826000620000448382620003b7565b506001620000538282620003b7565b505050620000706200006a6200008860201b60201c565b6200008c565b60086200007e8282620003b7565b5050505062000487565b3390565b600680546001600160a01b038381166001600160a01b0319831681179093556040519116919082907f8be0079c531659141344cd1fd0a4f28419497f9722a3daafe3b4186f6b6457e090600090a35050565b634e487b7160e01b600052604160045260246000fd5b601f19601f83011681018181106001600160401b03821117156200011c576200011c620000de565b6040525050565b60006200012f60405190565b90506200013d8282620000f4565b919050565b60006001600160401b038211156200015e576200015e620000de565b601f19601f83011660200192915050565b60005b838110156200018c57818101518382015260200162000172565b50506000910152565b6000620001ac620001a68462000142565b62000123565b905082815260208101848484011115620001c957620001c9600080fd5b620001d68482856200016f565b509392505050565b600082601f830112620001f457620001f4600080fd5b81516200020684826020860162000195565b949350505050565b600080600060608486031215620002285762000228600080fd5b83516001600160401b03811115620002435762000243600080fd5b6200025186828701620001de565b93505060208401516001600160401b03811115620002725762000272600080fd5b6200028086828701620001de565b92505060408401516001600160401b03811115620002a157620002a1600080fd5b620002af86828701620001de565b9150509250925092565b634e487b7160e01b600052602260045260246000fd5b600281046001821680620002e457607f821691505b602082108103620002f957620002f9620002b9565b50919050565b6000620003106200030d8381565b90565b92915050565b6200032183620002ff565b815460001960089490940293841b1916921b91909117905550565b60006200034b81848462000316565b505050565b818110156200036f57620003666000826200033c565b60010162000350565b5050565b601f8211156200034b576000818152602090206020601f850104810160208510156200039c5750805b620003b06020601f86010483018262000350565b5050505050565b81516001600160401b03811115620003d357620003d3620000de565b620003df8254620002cf565b620003ec82828562000373565b6020601f8311600181146200042357600084156200040a5750858201515b600019600886021c19811660028602178655506200047f565b600085815260208120601f198616915b8281101562000455578885015182556020948501946001909201910162000433565b86831015620004725784890151600019601f89166008021c191682555b6001600288020188555050505b505050505050565b6110c080620004976000396000f3fe608060405234801561001057600080fd5b506004361061010b5760003560e01c806370a08231116100a2578063a22cb46511610071578063a22cb46514610210578063b88d4fde14610223578063c87b56dd14610236578063e985e9c514610249578063f2fde38b1461028557600080fd5b806370a08231146101cf578063715018a6146101ef5780638da5cb5b146101f757806395d89b411461020857600080fd5b806323b872dd116100de57806323b872dd1461018357806340d097c31461019657806342842e0e146101a95780636352211e146101bc57600080fd5b806301ffc9a71461011057806306fdde0314610139578063081812fc1461014e578063095ea7b31461016e575b600080fd5b61012361011e3660046108ec565b610298565b6040516101309190610917565b60405180910390f35b6101416102ea565b604051610130919061097b565b61016161015c3660046109a4565b61037c565b60405161013091906109df565b61018161017c366004610a01565b6103a3565b005b610181610191366004610a3e565b6103c4565b6101816101a4366004610a8e565b6103dc565b6101816101b7366004610a3e565b61040d565b6101616101ca3660046109a4565b61042d565b6101e26101dd366004610a8e565b610462565b6040516101309190610ab5565b6101816104a6565b6006546001600160a01b0316610161565b6101416104ba565b61018161021e366004610ad6565b6104c9565b610181610231366004610c04565b6104e1565b6101416102443660046109a4565b6104f9565b610123610257366004610c83565b6001600160a01b03918216600090815260056020908152604080832093909416825291909152205460ff1690565b610181610293366004610a8e565b610596565b60006001600160e01b031982166380ac58cd60e01b14806102c957506001600160e01b03198216635b5e139f60e01b145b806102e457506301ffc9a760e01b6001600160e01b03198316145b92915050565b6060600080546102f990610ccc565b80601f016020809104026020016040519081016040528092919081815260200182805461032590610ccc565b80156103725780601f1061034757610100808354040283529160200191610372565b820191906000526020600020905b81548152906001019060200180831161035557829003601f168201915b5050505050905090565b6000610387826105d0565b506000908152600460205260409020546001600160a01b031690565b60405162461bcd60e51b81526004016103bb90610d27565b60405180910390fd5b60405162461bcd60e51b81526004016103bb90610d6b565b6103e4610604565b60006103ef60075490565b90506103ff600780546001019055565b610409828261062e565b5050565b610428838383604051806020016040528060008152506104e1565b505050565b6000818152600260205260408120546001600160a01b0316806102e45760405162461bcd60e51b81526004016103bb90610daf565b60006001600160a01b03821661048a5760405162461bcd60e51b81526004016103bb90610e08565b506001600160a01b031660009081526003602052604090205490565b6104ae610604565b6104b86000610648565b565b6060600180546102f990610ccc565b60405162461bcd60e51b81526004016103bb90610e4c565b60405162461bcd60e51b81526004016103bb90610e90565b6060610504826105d0565b6008805461051190610ccc565b80601f016020809104026020016040519081016040528092919081815260200182805461053d90610ccc565b801561058a5780601f1061055f5761010080835404028352916020019161058a565b820191906000526020600020905b81548152906001019060200180831161056d57829003601f168201915b50505050509050919050565b61059e610604565b6001600160a01b0381166105c45760405162461bcd60e51b81526004016103bb90610ee3565b6105cd81610648565b50565b6000818152600260205260409020546001600160a01b03166105cd5760405162461bcd60e51b81526004016103bb90610daf565b6006546001600160a01b031633146104b85760405162461bcd60e51b81526004016103bb90610f25565b61040982826040518060200160405280600081525061069a565b600680546001600160a01b038381166001600160a01b0319831681179093556040519116919082907f8be0079c531659141344cd1fd0a4f28419497f9722a3daafe3b4186f6b6457e090600090a35050565b6106a483836106cd565b6106b160008484846107c8565b6104285760405162461bcd60e51b81526004016103bb90610f84565b6001600160a01b0382166106f35760405162461bcd60e51b81526004016103bb90610fc6565b6000818152600260205260409020546001600160a01b0316156107285760405162461bcd60e51b81526004016103bb9061100a565b6000818152600260205260409020546001600160a01b03161561075d5760405162461bcd60e51b81526004016103bb9061100a565b6001600160a01b038216600081815260036020908152604080832080546001019055848352600290915280822080546001600160a01b0319168417905551839291907fddf252ad1be2c89b69c2b068fc378daa952ba7f163c4a11628f55a4df523b3ef908290a45050565b60006001600160a01b0384163b156108be57604051630a85bd0160e11b81526001600160a01b0385169063150b7a029061080c90339089908890889060040161101a565b6020604051808303816000875af1925050508015610847575060408051601f3d908101601f1916820190925261084491810190611069565b60015b6108a4573d808015610875576040519150601f19603f3d011682016040523d82523d6000602084013e61087a565b606091505b50805160000361089c5760405162461bcd60e51b81526004016103bb90610f84565b805181602001fd5b6001600160e01b031916630a85bd0160e11b1490506108c2565b5060015b949350505050565b6001600160e01b031981165b81146105cd57600080fd5b80356102e4816108ca565b60006020828403121561090157610901600080fd5b60006108c284846108e1565b8015155b82525050565b602081016102e4828461090d565b60005b83811015610940578181015183820152602001610928565b50506000910152565b6000610953825190565b80845260208401935061096a818560208601610925565b601f01601f19169290920192915050565b6020808252810161098c8184610949565b9392505050565b806108d6565b80356102e481610993565b6000602082840312156109b9576109b9600080fd5b60006108c28484610999565b60006001600160a01b0382166102e4565b610911816109c5565b602081016102e482846109d6565b6108d6816109c5565b80356102e4816109ed565b60008060408385031215610a1757610a17600080fd5b6000610a2385856109f6565b9250506020610a3485828601610999565b9150509250929050565b600080600060608486031215610a5657610a56600080fd5b6000610a6286866109f6565b9350506020610a73868287016109f6565b9250506040610a8486828701610999565b9150509250925092565b600060208284031215610aa357610aa3600080fd5b60006108c284846109f6565b80610911565b602081016102e48284610aaf565b8015156108d6565b80356102e481610ac3565b60008060408385031215610aec57610aec600080fd5b6000610af885856109f6565b9250506020610a3485828601610acb565b634e487b7160e01b600052604160045260246000fd5b601f19601f830116810181811067ffffffffffffffff82111715610b4557610b45610b09565b6040525050565b6000610b5760405190565b9050610b638282610b1f565b919050565b600067ffffffffffffffff821115610b8257610b82610b09565b601f19601f83011660200192915050565b82818337506000910152565b6000610bb2610bad84610b68565b610b4c565b905082815260208101848484011115610bcd57610bcd600080fd5b610bd8848285610b93565b509392505050565b600082601f830112610bf457610bf4600080fd5b81356108c2848260208601610b9f565b60008060008060808587031215610c1d57610c1d600080fd5b6000610c2987876109f6565b9450506020610c3a878288016109f6565b9350506040610c4b87828801610999565b925050606085013567ffffffffffffffff811115610c6b57610c6b600080fd5b610c7787828801610be0565b91505092959194509250565b60008060408385031215610c9957610c99600080fd5b6000610ca585856109f6565b9250506020610a34858286016109f6565b634e487b7160e01b600052602260045260246000fd5b600281046001821680610ce057607f821691505b602082108103610cf257610cf2610cb6565b50919050565b6015815260006020820174105c1c1c9bdd99481a5cdb89dd08185b1b1bddd959605a1b815291505b5060200190565b602080825281016102e481610cf8565b601a81526000602082017f7472616e7366657246726f6d2069736e277420616c6c6f77656400000000000081529150610d20565b602080825281016102e481610d37565b601881526000602082017f4552433732313a20696e76616c696420746f6b656e204944000000000000000081529150610d20565b602080825281016102e481610d7b565b602981526000602082017f4552433732313a2061646472657373207a65726f206973206e6f7420612076618152683634b21037bbb732b960b91b602082015291505b5060400190565b602080825281016102e481610dbf565b601f81526000602082017f736574417070726f76616c466f72416c6c2069736e277420616c6c6f7765640081529150610d20565b602080825281016102e481610e18565b601e81526000602082017f736166655472616e7366657246726f6d2069736e277420616c6c6f776564000081529150610d20565b602080825281016102e481610e5c565b602681526000602082017f4f776e61626c653a206e6577206f776e657220697320746865207a65726f206181526564647265737360d01b60208201529150610e01565b602080825281016102e481610ea0565b60208082527f4f776e61626c653a2063616c6c6572206973206e6f7420746865206f776e657291019081526000610d20565b602080825281016102e481610ef3565b603281526000602082017f4552433732313a207472616e7366657220746f206e6f6e20455243373231526581527131b2b4bb32b91034b6b83632b6b2b73a32b960711b60208201529150610e01565b602080825281016102e481610f35565b60208082527f4552433732313a206d696e7420746f20746865207a65726f206164647265737391019081526000610d20565b602080825281016102e481610f94565b601c81526000602082017f4552433732313a20746f6b656e20616c7265616479206d696e7465640000000081529150610d20565b602080825281016102e481610fd6565b6080810161102882876109d6565b61103560208301866109d6565b6110426040830185610aaf565b81810360608301526110548184610949565b9695505050505050565b80516102e4816108ca565b60006020828403121561107e5761107e600080fd5b60006108c2848461105e56fea26469706673582212207a717b6d5d991684ce41ff8ca02967de025303e3a44c59d3b47372d7f14756ee64736f6c6343000813003360806040523480156200001157600080fd5b5060405162001c1e38038062001c1e833981016040819052620000349162000599565b6200003f33620001f5565b8260008151811062000055576200005562000644565b6020908102919091010151600b80546001600160a01b0319166001600160a01b039092169190911790558260018151811062000095576200009562000644565b6020908102919091010151600c80546001600160a01b0319166001600160a01b0390921691909117905581600081518110620000d557620000d562000644565b602002602001015160009081620000ed919062000752565b508160018151811062000104576200010462000644565b6020026020010151600190816200011c919062000752565b508160028151811062000133576200013362000644565b6020026020010151600290816200014b919062000752565b508160038151811062000162576200016262000644565b6020026020010151600390816200017a919062000752565b508060008151811062000191576200019162000644565b602090810291909101015160065580600181518110620001b557620001b562000644565b602090810291909101015160075580600281518110620001d957620001d962000644565b6020026020010151600581905560048190555050505062000822565b600e80546001600160a01b038381166001600160a01b0319831681179093556040519116919082907f8be0079c531659141344cd1fd0a4f28419497f9722a3daafe3b4186f6b6457e090600090a35050565b634e487b7160e01b600052604160045260246000fd5b601f19601f83011681018181106001600160401b038211171562000285576200028562000247565b6040525050565b60006200029860405190565b9050620002a682826200025d565b919050565b60006001600160401b03821115620002c757620002c762000247565b5060209081020190565b60006001600160a01b0382165b92915050565b620002ef81620002d1565b8114620002fb57600080fd5b50565b8051620002de81620002e4565b6000620003226200031c84620002ab565b6200028c565b83815290506020808201908402830185811115620003435762000343600080fd5b835b818110156200036b57806200035b8882620002fe565b8452506020928301920162000345565b5050509392505050565b600082601f8301126200038b576200038b600080fd5b81516200039d8482602086016200030b565b949350505050565b60006001600160401b03821115620003c157620003c162000247565b601f19601f83011660200192915050565b60005b83811015620003ef578181015183820152602001620003d5565b50506000910152565b6000620004096200031c84620003a5565b905082815260208101848484011115620004265762000426600080fd5b62000433848285620003d2565b509392505050565b600082601f830112620004515762000451600080fd5b81516200039d848260208601620003f8565b6000620004746200031c84620002ab565b83815290506020808201908402830185811115620004955762000495600080fd5b835b818110156200036b5780516001600160401b03811115620004bb57620004bb600080fd5b808601620004ca89826200043b565b855250506020928301920162000497565b600082601f830112620004f157620004f1600080fd5b81516200039d84826020860162000463565b80620002ef565b8051620002de8162000503565b6000620005286200031c84620002ab565b83815290506020808201908402830185811115620005495762000549600080fd5b835b818110156200036b57806200056188826200050a565b845250602092830192016200054b565b600082601f830112620005875762000587600080fd5b81516200039d84826020860162000517565b600080600060608486031215620005b357620005b3600080fd5b83516001600160401b03811115620005ce57620005ce600080fd5b620005dc8682870162000375565b93505060208401516001600160401b03811115620005fd57620005fd600080fd5b6200060b86828701620004db565b92505060408401516001600160401b038111156200062c576200062c600080fd5b6200063a8682870162000571565b9150509250925092565b634e487b7160e01b600052603260045260246000fd5b634e487b7160e01b600052602260045260246000fd5b6002810460018216806200068557607f821691505b6020821081036200069a576200069a6200065a565b50919050565b6000620002de620006ae8381565b90565b620006bc83620006a0565b815460001960089490940293841b1916921b91909117905550565b6000620006e6818484620006b1565b505050565b818110156200070a5762000701600082620006d7565b600101620006eb565b5050565b601f821115620006e6576000818152602090206020601f85010481016020851015620007375750805b6200074b6020601f860104830182620006eb565b5050505050565b81516001600160401b038111156200076e576200076e62000247565b6200077a825462000670565b620007878282856200070e565b6020601f831160018114620007be5760008415620007a55750858201515b600019600886021c19811660028602178655506200081a565b600085815260208120601f198616915b82811015620007f05788850151825560209485019460019092019101620007ce565b868310156200080d5784890151600019601f89166008021c191682555b6001600288020188555050505b505050505050565b6113ec80620008326000396000f3fe608060405234801561001057600080fd5b50600436106101c45760003560e01c8063740ea9a6116100f95780639434571b11610097578063d6bd5db111610071578063d6bd5db11461036a578063e38096f014610373578063edca914c14610386578063f2fde38b1461038e57600080fd5b80639434571b1461033c578063bfebbda814610344578063c0af23461461035757600080fd5b806377d1efb4116100d357806377d1efb4146102fd5780637b1ac251146103105780638043c9c0146103235780638da5cb5b1461032b57600080fd5b8063740ea9a6146102ce57806374995689146102d75780637721fe5c146102ea57600080fd5b80632a6ca755116101665780636afadefb116101405780636afadefb146102985780636fdbd3f6146102ab578063713a3c93146102be578063715018a6146102c657600080fd5b80632a6ca7551461027457806361cec0601461027c578063644714521461028f57600080fd5b80631f4894b1116101a25780631f4894b1146102125780632021413414610242578063270821b614610262578063297449af1461026b57600080fd5b806305ccfd33146101c9578063089cdd0c146101de57806309e52c12146101fc575b600080fd5b6101dc6101d7366004610bd2565b6103a1565b005b6101e66103f1565b6040516101f39190610c63565b60405180910390f35b61020560085481565b6040516101f39190610c83565b610235610220366004610cc7565b600d6020526000908152604090205460ff1681565b6040516101f39190610cf0565b600b54610255906001600160a01b031681565b6040516101f39190610d07565b61020560095481565b61020560055481565b6101e661047f565b600c54610255906001600160a01b031681565b61020560045481565b6101dc6102a6366004610cc7565b61048c565b600a54610255906001600160a01b031681565b6101dc61052d565b6101dc6105ca565b61020560065481565b6101dc6102e5366004610d26565b6105de565b6101dc6102f8366004610d26565b61063d565b6101dc61030b366004610bd2565b61069b565b6101dc61031e366004610d99565b6106e0565b6101e6610873565b600e546001600160a01b0316610255565b6101e6610880565b6101dc610352366004610d26565b61088d565b6101dc610365366004610bd2565b6108eb565b61020560075481565b6101dc610381366004610cc7565b610930565b6101dc610984565b6101dc61039c366004610cc7565b610a19565b6103a9610a53565b60016103b58282610ec7565b507f43abd8587b7e2fd4918308a13f0cf9759cdbba18adb47403d2779a67dac06ef860016040516103e69190611004565b60405180910390a150565b600080546103fe90610df7565b80601f016020809104026020016040519081016040528092919081815260200182805461042a90610df7565b80156104775780601f1061044c57610100808354040283529160200191610477565b820191906000526020600020905b81548152906001019060200180831161045a57829003601f168201915b505050505081565b600380546103fe90610df7565b336000908152600d602052604090205460ff1615156001146104c95760405162461bcd60e51b81526004016104c09061104c565b60405180910390fd5b336000818152600d6020526040808220805460ff199081169091556001600160a01b0385168352918190208054909216600117909155517f7478cc8eb40d9aeecde2e2f399de4bfeb61e737a737f3412f2a6043a077e4494916103e691849061105c565b336000908152600d602052604090205460ff1615156001146105615760405162461bcd60e51b81526004016104c09061104c565b336000908152600d60205260408120805460ff19169055600580546001929061058b90849061108d565b90915550506040517f90cd9e65b809d22b37179b3997ffde6ac5df8905f83e2af169f9dcfbfd824d53906105c0903390610d07565b60405180910390a1565b6105d2610a53565b6105dc6000610a7d565b565b6105e6610a53565b6005548110156106085760405162461bcd60e51b81526004016104c0906110fd565b60048190556040517f7912a16bc65fddc53602b6a128feb835b934d3d374e62b1d229f0ea0b0544664906103e6908390610c83565b610645610a53565b60065481116106665760405162461bcd60e51b81526004016104c090611152565b60078190556040517f64fe254a049b2bf9f5756beb1fce549a5971b13c81378906e2152d25972b90bb906103e6908390610c83565b6106a3610a53565b60036106af8282610ec7565b507f848e9f060382bf958555423cce59bb0b82d362236369f776dc2bc7b5db192b5d60036040516103e69190611004565b336000908152600d602052604090205460ff1615156001146107145760405162461bcd60e51b81526004016104c09061104c565b6008544211156107365760405162461bcd60e51b81526004016104c090611196565b600954828260405160200161074c9291906111b9565b604051602081830303815290604052805190602001201461077f5760405162461bcd60e51b81526004016104c0906111fa565b600c546040516370a0823160e01b81526001600160a01b03909116906370a08231906107af903390600401610d07565b602060405180830381865afa1580156107cc573d6000803e3d6000fd5b505050506040513d601f19601f820116820180604052508101906107f09190611215565b1561080d5760405162461bcd60e51b81526004016104c090611263565b600c546040516340d097c360e01b81526001600160a01b03909116906340d097c39061083d903390600401610d07565b600060405180830381600087803b15801561085757600080fd5b505af115801561086b573d6000803e3d6000fd5b505050505050565b600180546103fe90610df7565b600280546103fe90610df7565b610895610a53565b60065481116108b65760405162461bcd60e51b81526004016104c0906112ba565b60068190556040517f83f749c39e7f10426bc8d591c61bcbac26fea26bf5ed757ed6cf0a1c753be269906103e6908390610c83565b6108f3610a53565b60026108ff8282610ec7565b507fd65307e9549d188f5ca686b92113466953e2c86f75071c922cb6c06a3a52d16860026040516103e69190611004565b610938610a53565b600b80546001600160a01b0319166001600160a01b0383169081179091556040517f28abb6d14a7f6e94196258e3c3acf0afce19ef39ea4ffe24e4231b9b4250f444916103e691610d07565b336000908152600d602052604090205460ff16156109b45760405162461bcd60e51b81526004016104c0906112fe565b336000908152600d60205260408120805460ff1916600190811790915560058054919290916109e490849061130e565b90915550506040517f6464f1c0b927235997ea56a096b2a63209270b55e0bce7589dd8996e79806e6f906105c0903390610d07565b610a21610a53565b6001600160a01b038116610a475760405162461bcd60e51b81526004016104c090611364565b610a5081610a7d565b50565b600e546001600160a01b031633146105dc5760405162461bcd60e51b81526004016104c0906113a6565b600e80546001600160a01b038381166001600160a01b0319831681179093556040519116919082907f8be0079c531659141344cd1fd0a4f28419497f9722a3daafe3b4186f6b6457e090600090a35050565b634e487b7160e01b600052604160045260246000fd5b601f19601f830116810181811067ffffffffffffffff82111715610b0b57610b0b610acf565b6040525050565b6000610b1d60405190565b9050610b298282610ae5565b919050565b600067ffffffffffffffff821115610b4857610b48610acf565b601f19601f83011660200192915050565b82818337506000910152565b6000610b78610b7384610b2e565b610b12565b905082815260208101848484011115610b9357610b93600080fd5b610b9e848285610b59565b509392505050565b600082601f830112610bba57610bba600080fd5b8135610bca848260208601610b65565b949350505050565b600060208284031215610be757610be7600080fd5b813567ffffffffffffffff811115610c0157610c01600080fd5b610bca84828501610ba6565b60005b83811015610c28578181015183820152602001610c10565b50506000910152565b6000610c3b825190565b808452602084019350610c52818560208601610c0d565b601f01601f19169290920192915050565b60208082528101610c748184610c31565b9392505050565b805b82525050565b60208101610c918284610c7b565b92915050565b60006001600160a01b038216610c91565b610cb181610c97565b8114610a5057600080fd5b8035610c9181610ca8565b600060208284031215610cdc57610cdc600080fd5b6000610bca8484610cbc565b801515610c7d565b60208101610c918284610ce8565b610c7d81610c97565b60208101610c918284610cfe565b80610cb1565b8035610c9181610d15565b600060208284031215610d3b57610d3b600080fd5b6000610bca8484610d1b565b60008083601f840112610d5c57610d5c600080fd5b50813567ffffffffffffffff811115610d7757610d77600080fd5b602083019150836001820283011115610d9257610d92600080fd5b9250929050565b60008060208385031215610daf57610daf600080fd5b823567ffffffffffffffff811115610dc957610dc9600080fd5b610dd585828601610d47565b92509250509250929050565b634e487b7160e01b600052602260045260246000fd5b600281046001821680610e0b57607f821691505b602082108103610e1d57610e1d610de1565b50919050565b6000610c91610e2f8381565b90565b610e3b83610e23565b815460001960089490940293841b1916921b91909117905550565b6000610e63818484610e32565b505050565b81811015610e8357610e7b600082610e56565b600101610e68565b5050565b601f821115610e63576000818152602090206020601f85010481016020851015610eae5750805b610ec06020601f860104830182610e68565b5050505050565b815167ffffffffffffffff811115610ee157610ee1610acf565b610eeb8254610df7565b610ef6828285610e87565b6020601f831160018114610f2a5760008415610f125750858201515b600019600886021c198116600286021786555061086b565b600085815260208120601f198616915b82811015610f5a5788850151825560209485019460019092019101610f3a565b86831015610f765784890151600019601f89166008021c191682555b600160028802018855505050505050505050565b60008154610f9781610df7565b808552602085019450600182168015610fb75760018114610fcd57610ffb565b60ff198316865260208215150286019350610ffb565b60008581526020902060005b83811015610ff557815488820152600190910190602001610fd9565b87019450505b50505092915050565b60208082528101610c748184610f8a565b601881526000602082017f596f7520646f206e6f7420686176652061207469636b65740000000000000000815291505b5060200190565b60208082528101610c9181611015565b6040810161106a8285610cfe565b610c746020830184610cfe565b634e487b7160e01b600052601160045260246000fd5b80820180821115610c9157610c91611077565b604081526000602082017f546f74616c207469636b657473206d757374206265206772656174657220746881527f616e206f7220657175616c20746f2072656d61696e696e67207469636b657473602082015291505b5060400190565b60208082528101610c91816110a0565b602881526000602082017f456e642074696d65206d7573742062652067726561746572207468616e2073748152676172742074696d6560c01b602082015291506110f6565b60208082528101610c918161110d565b601e81526000602082017f596f752063616e6e6f742072656564656d20796f7572204e465420796574000081529150611045565b60208082528101610c9181611162565b60006111b3838584610b59565b50500190565b6000610bca8284866111a6565b601881526000602082017f53656372657420776f726420697320696e636f7272656374000000000000000081529150611045565b60208082528101610c91816111c6565b8051610c9181610d15565b60006020828403121561122a5761122a600080fd5b6000610bca848461120a565b6016815260006020820175165bdd48185b1c9958591e481a185d9948184813919560521b81529150611045565b60208082528101610c9181611236565b602a81526000602082017f53746172742074696d65206d7573742062652067726561746572207468616e2081526973746172742074696d6560b01b602082015291506110f6565b60208082528101610c9181611273565b601981526000602082017f596f7520616c726561647920686176652061207469636b65740000000000000081529150611045565b60208082528101610c91816112ca565b81810381811115610c9157610c91611077565b602681526000602082017f4f776e61626c653a206e6577206f776e657220697320746865207a65726f206181526564647265737360d01b602082015291506110f6565b60208082528101610c9181611321565b60208082527f4f776e61626c653a2063616c6c6572206973206e6f7420746865206f776e657291019081526000611045565b60208082528101610c918161137456fea2646970667358221220f7bc301bec67a902cb48a255a9c02b92171de352012befb15f4128c57a25218f64736f6c63430008130033a2646970667358221220f95961cafc456250b27e6c0ef67fd555c69dc3fac5a00eccaf54b6c00bb44f4c64736f6c63430008130033",
  "devdoc": {
    "author": "LE0xUL",
    "details": "This contract is the standard way to create a new event",
    "kind": "dev",
    "methods": {},
    "title": "MeetdApp Factory",
    "version": 1
  },
  "userdoc": {
    "kind": "user",
    "methods": {
      "mapEventNum(uint256)": {
        "notice": "Mapping to store all the created houses numEvent -> dataEvent"
      },
      "mapIdEvent(bytes32)": {
        "notice": "Relation between eventId (hash nanoId) and eventAddr"
      },
      "numEvents()": {
        "notice": "Store the number of created events"
      }
    },
    "notice": "Create and config New Events",
    "version": 1
  },
  "storageLayout": {
    "storage": [
      {
        "astId": 3490,
        "contract": "contracts/factory/MeetdAppFactory.sol:MeetdAppFactory",
        "label": "numEvents",
        "offset": 0,
        "slot": "0",
        "type": "t_uint256"
      },
      {
        "astId": 3496,
        "contract": "contracts/factory/MeetdAppFactory.sol:MeetdAppFactory",
        "label": "mapIdEvent",
        "offset": 0,
        "slot": "1",
        "type": "t_mapping(t_bytes32,t_contract(MeetdAppEvent)3400)"
      },
      {
        "astId": 3502,
        "contract": "contracts/factory/MeetdAppFactory.sol:MeetdAppFactory",
        "label": "mapEventNum",
        "offset": 0,
        "slot": "2",
        "type": "t_mapping(t_uint256,t_struct(dataEvent)3742_storage)"
      }
    ],
    "types": {
      "t_bool": {
        "encoding": "inplace",
        "label": "bool",
        "numberOfBytes": "1"
      },
      "t_bytes32": {
        "encoding": "inplace",
        "label": "bytes32",
        "numberOfBytes": "32"
      },
      "t_contract(MeetdAppEvent)3400": {
        "encoding": "inplace",
        "label": "contract MeetdAppEvent",
        "numberOfBytes": "20"
      },
      "t_mapping(t_bytes32,t_contract(MeetdAppEvent)3400)": {
        "encoding": "mapping",
        "key": "t_bytes32",
        "label": "mapping(bytes32 => contract MeetdAppEvent)",
        "numberOfBytes": "32",
        "value": "t_contract(MeetdAppEvent)3400"
      },
      "t_mapping(t_uint256,t_struct(dataEvent)3742_storage)": {
        "encoding": "mapping",
        "key": "t_uint256",
        "label": "mapping(uint256 => struct dataEvent)",
        "numberOfBytes": "32",
        "value": "t_struct(dataEvent)3742_storage"
      },
      "t_string_storage": {
        "encoding": "bytes",
        "label": "string",
        "numberOfBytes": "32"
      },
      "t_struct(dataEvent)3742_storage": {
        "encoding": "inplace",
        "label": "struct dataEvent",
        "members": [
          {
            "astId": 3736,
            "contract": "contracts/factory/MeetdAppFactory.sol:MeetdAppFactory",
            "label": "active",
            "offset": 0,
            "slot": "0",
            "type": "t_bool"
          },
          {
            "astId": 3738,
            "contract": "contracts/factory/MeetdAppFactory.sol:MeetdAppFactory",
            "label": "eventId",
            "offset": 0,
            "slot": "1",
            "type": "t_string_storage"
          },
          {
            "astId": 3741,
            "contract": "contracts/factory/MeetdAppFactory.sol:MeetdAppFactory",
            "label": "eventAddr",
            "offset": 0,
            "slot": "2",
            "type": "t_contract(MeetdAppEvent)3400"
          }
        ],
        "numberOfBytes": "96"
      },
      "t_uint256": {
        "encoding": "inplace",
        "label": "uint256",
        "numberOfBytes": "32"
      }
    }
  }
}